:020000040800F2
:1000000068130020C101000811460008F9390008F2
:1000100051430008470700083D6600080000000043
:10002000000000000000000000000000F34D000888
:100030000D10000800000000354C00083D4F00087E
:10004000DB010008DB010008DB010008DB01000820
:10005000DB010008DB010008DB0100080F100008CD
:10006000DB010008DB010008DB010008DB01000800
:10007000DB010008DB010008DB010008DB010008F0
:10008000DB010008DB010008DB0100085507000860
:1000900049070008DB010008DB010008DB0100085C
:1000A000DB010008DB010008DB010008DB010008C0
:1000B000DB010008DB010008DB010008DB010008B0
:1000C000DB010008DB010008DB010008DB010008A0
:1000D000DB0100081D590008295900084159000892
:1000E000DB010008DB010008DB010008DB01000880
:1000F000DB010008DB010008DB010008DB01000870
:10010000DB010008DB010008DB010008DB0100085F
:10011000DB010008DB0100084150000855500008D1
:10012000DB010008DB0100085D0F0008DB010008AF
:10013000DB010008DB010008DB0100086D07000897
:1001400061070008DB010008DB0100089148000896
:10015000DB010008DB010008DB0100084D59000845
:10016000DB010008DB010008DB010008DB010008FF
:10017000DB010008DB010008DB01000800000000D3
:10018000DB010008DB010008DB010008DB010008DF
:10019000DB010008DB010008DB010008DB010008CF
:1001A0000000000000000000DB010008DFF80CD0B8
:1001B00000F0AAFA00480047756A0008681300209A
:1001C0000648804706480047FEE7FEE7FEE7FEE7F1
:1001D000FEE7FEE7FEE7FEE7FEE7FEE7ED4F00087D
:1001E000AD01000840EA01039B0703D009E008C9FC
:1001F000121F08C0042AFAD203E011F8013B00F8EC
:10020000013B521EF9D27047D2B201E000F8012B37
:10021000491EFBD270470022F6E710B513460A4686
:1002200004461946FFF7F0FF204610BD2DE9FE4FAA
:10023000804681EA0300C00F0C46009021F0004187
:1002400023F00045B8EB0200A94105D24046214603
:1002500090461C460B46024623F00040104347D010
:10026000270DC7F30A00C3F30A510290401A019008
:1002700040286BDAC3F3130040F4801B00989246C9
:1002800020B10023D2EB030A63EB0B0B0198594614
:10029000C0F14002504600F071F906460D46504646
:1002A0005946019A00F089F910EB080061410024D9
:1002B00087EA115284EAE7731A4340D0009A62B386
:1002C000019A012A4FEA075215DC001B61EB02017B
:1002D0004FF0004202EA0752CDE90042001C41F50E
:1002E000801132462B4600F0C0F903B0BDE8F08F14
:1002F00040462146F9E7001B61EB0201001C41F575
:10030000801300185B412018A2F5001747EB03018A
:1003100040EAD570B6196D4111E06D084FEA360616
:1003200045EAC0754FEA0752001B61EB0201001C51
:1003300041F5801149084FEA300000195141324619
:100340002B4603B0BDE8F04F00F080B900980122C1
:1003500040000023D0EB020263EBE07300982146DB
:100360004FEAE074B8EB000061EB0401E9E783F0C9
:1003700000435BE781F0004158E72DE9FE4F81EA39
:10038000030404F0004421F0004100944FF0000BFE
:1003900023F0004350EA01045ED052EA03045BD02C
:1003A000C3F30A54C1F30A552C44A4F2F334019464
:1003B000A0FB0254C1F3130141F48011C3F31303F2
:1003C00043F4801301FB024400FB034E840A970AA6
:1003D00044EA815447EA8357A4FB076802958D0AD3
:1003E00005FB07854FEA932C04FB0C542705029D5F
:1003F0004FEA065847EA1637B5EB08056EEB070CCF
:10040000870E920E47EA811742EA8312A7FB020188
:10041000B6EB0B0164EB00042B0D43EA0C335E18C2
:1004200044EB1C50DA465146E7FB0201C5F31304C6
:100430004FEA0B3343EA14534FEA0432019C43EA78
:100440000603A4F10C040294009CCDE900B400F072
:100450000CF903B0BDE8F08F00200146F9E70EB5B6
:10046000C10F80EAE0700844CA07002140F233431C
:100470008DE80E000A460B4600F0F7F803B000BD09
:1004800070B5C1F30A5201F000450024C1F3130115
:1004900040F2FF3341F480119A4201DA002070BD2E
:1004A00040F233439A42A2F2334203DC524200F05C
:1004B00074F800E090402C43F1D0404270BD00F051
:1004C000004230F000400AD0C10D01F56071C0F368
:1004D000160042EA0151C20840071143704700204C
:1004E0000146704730B5041E71F1000404DB4FF083
:1004F0000044404264EB0101141E73F1000405DB6B
:100500001C464FF00043524263EB04038B4208BF8A
:10051000824230BD30B5041E71F1000404DB4FF09F
:100520000044404264EB0101141E73F1000405DB3A
:100530001C464FF00043524263EB0403994208BF4C
:10054000904230BD01F0004330B421F0004150EA48
:10055000010206D00A0DA2F56072C1F31301002A50
:1005600002DC30BC00207047440F44EAC104C100E3
:10057000E01830BC00EBC25000F031B8202A04DB98
:10058000203A00FA02F1002070479140C2F12003A6
:1005900020FA03F3194390407047202A04DB203AE5
:1005A00021FA02F00021704721FA02F3D040C2F193
:1005B00020029140084319467047202A06DBCB17DA
:1005C000203A41FA02F043EAE07306E041FA02F30E
:1005D000D040C2F1200291400843194670470029DB
:1005E000A8BF7047401C490008BF20F001007047B9
:1005F00010B4B0FA80FC00FA0CF050EA010404BF19
:1006000010BC704749B1CCF1200421FA04F411FA6E
:100610000CF118BF012121430843A3EB0C01CB1DB2
:100620004FEA00614FEA102042BF002010BC704723
:1006300000EBC35010440029A4BF10BC7047401CFD
:10064000490008BF20F0010010BC704710B5141E0F
:1006500073F1000408DA401C41F1000192185B417B
:100660001A4301D120F0010010BD2DE9F04D924652
:100670009B4611B1B1FA81F202E0B0FA80F2203269
:100680009046FFF77BFF04460F4640EA0A0041EA26
:100690000B0153465A46084313D0114653EA010052
:1006A00019D0C8F140025046FFF777FF05460E46C5
:1006B000504659464246FFF761FF084305D00120E6
:1006C00004E020463946BDE8F08D0020054346EAA7
:1006D000E0762C4337430A986305E40AA0EB080050
:1006E0000022FD0A44EA47540A3002D500200146A0
:1006F000E9E7010510196941DDE90845001969417B
:10070000BDE8F04DA2E70000064C074D06E0E068AA
:1007100040F0010394E8070098471034AC42F6D348
:10072000FFF748FDE47C0008047D00080A1A642AEB
:1007300001DD643003E012F1640F02DA643800B2C4
:10074000704708467047FEE7014800F0D9BC00003A
:10075000A8090020014800F0D3BC0000A80900202F
:10076000014800F0CDBC0000E8090020014800F07D
:10077000C7BC0000E809002010B54FF4D872036828
:1007800002EB01129B5813F00404436B9C60046855
:10079000436BA45856D0E4085C6003689A58436BD6
:1007A00002F00202DA604FF4DA72036802EB01121F
:1007B0009B58446B03F00F032361436B196203687A
:1007C0009A58436BC2F30722DA614FF4DC72036874
:1007D00002EB01129B58446B237503689B58446BD2
:1007E0001B0A637503689B58446B1B0CA375036855
:1007F0009A58436B120EDA754FF4DE72036802EBFF
:1008000001129B58446B237603689B58446B1B0A68
:10081000637603689B58446B1B0CA37603689A5855
:10082000436B120EDA762022002901680DD00A618E
:1008300001684A6922F010024A6190F838102229B2
:1008400009D021E0640D1C60A7E7CA6001684A690D
:1008500022F00202F0E701684A6922F480724A61DC
:1008600001684A6922F400724A6101684A6922F407
:1008700080624A6101684A6922F400624A61016843
:100880004A6922F400424A6190F83810322907D0B0
:100890005FF0010180F8381000F04AFE002010BD22
:1008A0001221F7E7F0B4056B00242A60056BAC60F9
:1008B000056BEC60026B136106E00D5D04F1140240
:1008C000066B641CE4B2B5549C42F6D3F0BC00F055
:1008D0009DBE10B501684A6922F001024A6190F894
:1008E0003810122918D101684A6922F480724A61CD
:1008F00001684A6922F400724A6101684A6922F477
:1009000080624A6101684A6922F400624A610168B2
:100910004A6922F400424A6190F83810322906D020
:10092000012180F8381000F014FF002010BD2221B2
:10093000F7E7000000B58BB000210122CDE90612D7
:10094000039108920E220D4B0491009101910291A6
:100950000992984204D10591094901631C31416310
:100960000849884205D106490592403101631C318E
:100970004163694600F050FB0BB000BDA8090020A0
:1009800020070020E809002070B5214C214D4FF0D0
:1009900000062DED028B6078C00736D094ED030A77
:1009A000B2EE0E8A4FF4C87138EE400ABDEEC00AAE
:1009B00010EE100A484340F6C411884200DD084694
:1009C0001349343988831448B0F90010104834387A
:1009D00004F036F82880B4F90810814200DD08469A
:1009E000288094ED030A38EE400A10EE100AB0F1A8
:1009F000804F07DA607800F0FE00607005482E80B6
:100A0000801C0671BDEC028B70BD2E80FAE70000E1
:100A100024030020300000207A0000202DE9F04758
:100A200092482DED028BB0F90010914804F008F8BF
:100A3000904C60809048B0F900108D48343003F03D
:100A4000FFFFA0808D48B0F900108948683003F09E
:100A5000F7FFE0808A48B0F9001085489C3003F029
:100A6000EFFF2081814687480027017801297CD14A
:100A7000854E07708549D6F81980884576DDD6F809
:100A80001D5083488349284488422CD2B4F902007F
:100A9000FFF7E5FC9FED808B53EC182BFFF76DFC07
:100AA000FFF7EEFC6080B4F90400FFF7D8FC53ECCC
:100AB000182BFFF762FCFFF7E3FCA080B4F90600F7
:100AC000FFF7CDFC53EC182BFFF757FCFFF7D8FCD2
:100AD000E0804846FFF7C3FC53EC182BFFF74DFCB2
:100AE000FFF7CEFC20816E486E49284488422DD203
:100AF000B4F90200FFF7B3FC9FED6B8B53EC182B9E
:100B0000FFF73BFCFFF7BCFC6080B4F90400FFF783
:100B1000A6FC53EC182BFFF730FCFFF7B1FCA080CC
:100B2000B4F90600FFF79BFC53EC182BFFF725FCEC
:100B3000FFF7A6FCE080B4F90800FFF790FC53EC47
:100B4000182BFFF71AFCFFF79BFC20815448C04389
:100B5000854247DA00EE908A9FED551A81EE200A11
:100B600084ED030A10EE100A01E052E03AE0B0F121
:100B70007E5F01DDB7EE000A84ED030AB4F90200DE
:100B800000EE900AF8EEE00A60EE800AFDEEE00A60
:100B900010EE900A6080B4F9040000EE900AF8EEBE
:100BA000E00A60EE800AFDEEE00A10EE900AA080F6
:100BB000B4F9060000EE900AF8EEE00A60EE800A52
:100BC000FDEEE00A10EE900AE080B4F9080000EEB5
:100BD000900AF8EEE00A20EE800ABDEEC00A10EEA0
:100BE000100A2081B6F8072001213248A2F50072D0
:100BF000EE3A08D04FF4C863FA2A31D0A2F5007259
:100C0000EE3A08D12CE0B6F82120B2F5966F01D269
:100C1000077000E00170618827480A0A027041707D
:100C2000A1880A0A8270C170E1880A0A02714171C2
:100C300021890A0A8271C171204909780C2905D3DA
:100C400000214754491CC9B20829FAD3BDEC028BD4
:100C50000823BDE8F0479A0117491948FFF722BE5B
:100C6000B6F821209A42D5D2D2E7000084000020B5
:100C7000C00000201C000020860000208A00002008
:100C800088000020690000204706002000009C42E8
:100C9000FFFFDFBDFFFF4F00666666666666EE3FDC
:100CA000FFFF5FBEFFFF7F00333333333333EB3F50
:100CB00000009C42320000206A0000200300002057
:100CC000A809002070B502F0F5FE2A4C2A48B4F9B4
:100CD0000C1004F003F92849A081923941F66412FE
:100CE000B1F91C00904200DD104640F6FC028883FA
:100CF000904200DA104688832048008801B21E48DE
:100D0000923803F09DFE1C4940425E3988831A48A0
:100D1000B4F90C105E3803F093FE194D4042288060
:100D20001548B4F908102A3804F0D8F8208115487D
:100D3000008801B21048FA3803F082FE0E494042A2
:100D4000C63988830C48B4F90810C63803F078FE19
:100D500068802A880C49130A0B704A70020A8A704C
:100D6000C870BDE87040082340F2FF120748FFF743
:100D700099BD0000A00700208A0200208C000020FE
:100D80002C0000208E00002072000020A809002006
:100D900030B5214900220D4691F9013095ED030A45
:100DA0009C07F7EE000A06D443F002034B70C8809C
:100DB00030EE600A13E0B1F90620824201DD00F551
:100DC000005000B2821A501E40F2E734A04209D20D
:100DD000580710D430EE200A43F00400487081ED2B
:100DE000030A08E0A2F6B93041F24544A04202D21B
:100DF00003F0FB00487091ED030A00EE902A9FED8E
:100E0000071ABDEEC00AF8EEE00AB8EEC00A00EE1E
:100E1000810A81ED030A30BD24030020000000395F
:100E2000F0B53D4D3D4E4FF4FA6C29881036C8049C
:100E3000A0F1005004143948A1F58061C1EB4131A3
:100E400004804480CA008280C2806988C804A0F1FE
:100E5000005003143148A1F580610830C1EB4131E5
:100E60000380C90041808180C380A888A0F580608C
:100E700000EB4000400030807080B080F080ED8852
:100E80000836A5F58065C5EB4535ED0035807580E4
:100E9000B580F580E61828440C44351811442EB26C
:100EA00004441D4D01441A44143510442E8024B2CC
:100EB0006C8009B207B2A9801948EF80194A1A4B11
:100EC00086831A4D94839983AF8366450DDD64450F
:100ED0000BDD614509DD674507DDA0F81CC0A2F800
:100EE0001CC0A3F81CC0A5F81CC0B0F91C401049D8
:100EF0008C420FDAB2F91C408C420BDAB3F91C4079
:100F00008C4207DAB5F91C408C4203DA8183918365
:100F10009983A983F0BD0000380300203E00002023
:100F2000C0000020F4000020280100205C01002007
:100F300030F8FFFF08484FF48061018041808180D4
:100F4000C18000210172417241818181C18101749E
:100F5000417441827047000038030020014800F0CE
:100F600053BC0000400B002001681823CAB2103A9D
:100F7000B2FBF3F2054B6FF30901032A9B5CC365D7
:100F800000D9091D8165084670470000DC7C000817
:100F900010B5014600208B698A6A4FF0C07453B1C6
:100FA000B3F5005F15D072B1012A0CD0022A0AD025
:100FB000032A09D104E01AB1012A06D0022A03D17A
:100FC000C96AC90100D5012010BDC96AA142FAD081
:100FD00010BD002AF7D0012AF2D0022AF3D0032A4A
:100FE000F3D010BD30B50468256825F48025256050
:100FF000046863608368402B036803D099600068CD
:10100000C26030BD9A600068C16030BD7047022088
:1010100000F07EBDFEE70000F0B50A7D01209040A3
:10102000344A136843F001031360136823F47C53BC
:10103000136013684C6A43EA042313602D4B1C337E
:101040001C6884431C602B4D2B4CCE690C35A6B913
:101050002E6886432E608F894E6867F31F464F695E
:1010600004EBC707C7F840660F890E6867F31F4691
:101070004F6904EBC707C7F84466CE69012E14D147
:101080002E6806432E600E884D6866F31F454E6934
:1010900004EBC606C6F840560E89CD6866F31F45B8
:1010A0004E6904EBC604C4F84456124C8D69241DE5
:1010B000002D256806D0054325600E4C0D691434BB
:1010C00015B104E08543F7E72568854325600D6980
:1010D000012D02D1256805432560096A012902D145
:1010E000196801431960106820F0010010600020A9
:1010F000F0BD000000660040006000407047000046
:1011000010B5044600684169C943C90714D1826813
:101110005849914368D000218368574A9A4365D063
:10112000002283685548984362D000201143014350
:1011300002D02046FFF7CDFB2068C168406911F05E
:10114000030FC0F3400004D018B100212046FFF780
:1011500013FB21680869496910F0030FC1F30011FE
:1011600004D019B101212046FFF706FB20688169F0
:10117000426911F0010FC2F300234269C2F3C03289
:1011800005D023B11AB1E16B41F00101E16381693E
:10119000C1F3400341694269C1F34021C2F3C03247
:1011A0002BB121B11AB1E16B41F00201E163816918
:1011B0004269C1F38001C2F380234269C2F3C032A5
:1011C00029B123B11AB1E16B41F00401E1638169F6
:1011D00011F0700F0ED0002142694369C2F3C022A2
:1011E000C3F3C03341B127E0012195E7012298E71D
:1011F00001209BE70121EFE7F2B1EBB1816901F03A
:101200007001402929D006DC102909D020290BD0F3
:1012100030290DD11DE0502923D0602908D124E0C8
:10122000E16B41F0080102E0E16B41F01001E16384
:10123000816921F070018161E06B002808D021688C
:1012400004204860012084F838002046FFF756FF4C
:1012500010BDE16B41F02001E9E7E16B41F0400195
:10126000E5E7E16B41F08001E1E7E16B41F480717A
:10127000DDE7000003000004000300080000031085
:101280002DE9F041040004D094F83800002518B18D
:1012900007E00120BDE8F08184F83950204600F0D5
:1012A00093F8022084F838002068016821F00201D8
:1012B00001602068016841F00101016000F024FD37
:1012C0000746032605E000BF00F01EFDC01B0A28EC
:1012D00063D820684068C007F6D020684168C90715
:1012E00068D0A169012901683FD021F08001016027
:1012F000E0690128206801683AD021F040010160CE
:10130000206A01282068016835D021F020010160A1
:10131000606A01282068016830D021F01001016066
:10132000A06A0128206801682BD021F00801016023
:10133000E06A01282068016826D021F004010160DC
:10134000D4E902010843D4E9041211430843616857
:10135000491E08432168C8612068016821F0010125
:10136000016000F0D1FC07461CE041F08001BEE7BF
:1013700041F04001C3E741F02001C8E741F010010E
:10138000CDE741F00801D2E741F00401D7E700BF03
:1013900000F0BAFCC01B0A2804D904F8386F0320F7
:1013A000657077E720684068C007F1D12068406821
:1013B000C00703D0042084F838006AE7E563012001
:1013C00084F83800002065E7F0B5324B0768DFF895
:1013D000C0C018680322022409252F490026401C9A
:1013E00087B0674521D11860012807D1086840F00F
:1013F00000700860086800F0007005908DE85400E7
:10140000CDE903256946254800F08EFB01221146EF
:10141000132000F063FD132000F055FD012211465A
:10142000142000F05BFD14202EE0DFF874C0674547
:101430002CD10F6847F080670F600F68012807F014
:1014400080670597186007D1086840F00070086051
:10145000086800F0007005904FF440508DE851008E
:10146000CDE9032569460F4800F05EFB01221146D5
:101470003F2000F033FD3F2000F025FD0122114602
:10148000402000F02BFD402000F01DFD07B0F0BD16
:1014900000640040B000002040380240000C0240D0
:1014A000006800400004024010B590F83820012A7E
:1014B00001D0122A39D190F83920012A35D00122E1
:1014C00080F8392090F83820122A29D05FF02202C3
:1014D00080F838200022C26303685C6944F4807499
:1014E0005C6103685C6944F400745C6103685C6976
:1014F00044F480645C6103685C6944F400645C618A
:1015000003685C6944F400445C6180F83920006839
:101510000029416906D041F010014161002010BD51
:101520003222D5E741F00201F7E7022010BD0000AA
:1015300070B5416B31480A7D02704A7D42708A7DE8
:101540008270CA7DC2700A68A0F11801A2F201225D
:10155000072A2FD2DFE802F0040B121920242800FA
:1015600003885BBA4B80408840BA488122E00388F8
:101570005BBA8B80408840BA88811BE003885BBAE5
:10158000CB80408840BA088214E003885BBA0B81A4
:10159000408840BAC8810DE0008840BA488209E01E
:1015A000008840BA888205E003885BBACB82408815
:1015B00040BA08800024072A1AD2DFE802F00404A7
:1015C00004040C0C16000E4D2878012810D1FFF7EA
:1015D00025FA2C700CE00B4D2878012808D1FFF774
:1015E00071FB2C7002F09EFA02E0C88A03F058FCEE
:1015F000BDE8704000210448FFF756BF920000206C
:101600000000002002000020A809002070B5036837
:101610009968490105D49968090102D49968C900FB
:101620007ED590F83910012907D0012180F83910B2
:101630009968490103D5002207E0022070BD99682E
:10164000090101D5012200E002224FF4C07101EB33
:1016500002115C5804F001045C50036B9C68002C80
:1016600067D0066875582543DC685B6844EAC303A5
:101670001D437550036B1C7C04F00F041C614FF478
:10168000C273046803EB0213E55825F00F05E5501B
:101690000468E558066B36693543E550036B4FF433
:1016A000C47505EB02151C7DD3F8153044EA0323FD
:1016B00004686351036B4FF4C67505EB02121C7E80
:1016C000D3F8193044EA03230468A35090F8382073
:1016D000222A37D05FF0120280F838200022C2633D
:1016E00080F839200268536943F4807353610268BB
:1016F000536943F4007353610268536943F4806390
:1017000053610268536943F400635361026853698B
:1017100043F4004353610268536943F0010300E05E
:1017200012E053610068425842F00102425000202A
:1017300070BD04686558DE681B88354345EA43532D
:10174000635097E73222C7E7042180F83810012060
:1017500070BD70472DE9F0410446876D00F0D4FA62
:10176000064694F835000025022806D080206065E2
:1017700084F834500120BDE8F0812068016821F030
:10178000160101602068416921F080014161206CEF
:1017900008B9A06C20B12068016821F0080101603F
:1017A0002068016821F0010101600BE000F0ACFA53
:1017B000801B052806D92020606504F8345F0320CB
:1017C0006070D8E720680068C007EFD194F85C101B
:1017D0003F208840B86004F8345F0120607000202A
:1017E000C9E790F83510022903D080214165012016
:1017F0007047052180F835100068016821F001016B
:1018000001600020704700002DE9F84304464FF0C6
:101810000008CDF8008064484FF41651A56D0068AB
:10182000B0FBF1F72E6894F85C10082000FA01F183
:1018300031420FD021680A6852070BD50A6822F09E
:1018400004020A6094F85C108840A860606D40F063
:101850000100606594F85C1054488840304208D01C
:1018600021684969090604D5A860606D40F002004E
:1018700060654E4894F85C10C01C8840304208D027
:1018800021680968890704D5A860606D40F00400EC
:10189000606594F85C1010208840304218D02168B0
:1018A0000968090714D5A86020680168490304D5B0
:1018B0000068000308D5A16C07E00168C90503D4DE
:1018C000016821F008010160216C09B120468847B8
:1018D00094F85C102020884030424FF0010631D04F
:1018E00021680968C9062DD5A86094F83500052837
:1018F0002068016806D0490347D5006800031DD45D
:10190000616C1CE021F0160101602068416921F042
:1019100080014161206C08B9A06C20B12068016889
:1019200021F00801016094F85C103F208840A86015
:1019300084F8348084F83560216D1FE0E16B09B1D3
:1019400020468847606D00282BD0606DC00714D0FA
:10195000052084F835002068016821F0010101604C
:101960000098401C0090B84203D820680068C00767
:10197000F6D184F8348084F83560E16C002910D009
:1019800001B02046BDE8F04308470168C905D5D439
:10199000016821F01001016084F8348084F835601A
:1019A000CCE7BDE8F8830000BC0000200100800007
:1019B0002DE9F041044600F0A7F906465CB1002588
:1019C00084F83450022084F835002068016821F042
:1019D000010101600DE00120BDE8F08100F094F903
:1019E000801B052805D920206065032084F8350078
:1019F000F2E720680068C007F0D1226811681F482C
:101A00000140D4E901031843D4E9033633431843B2
:101A100063691843A3691843E3691843236A1843A9
:101A20000843616A042903D1D4E90B13194308431D
:101A3000106020684069666A20F0070130460E4356
:101A4000012704280AD1A06A06432046FFF7A0FA1E
:101A500020B14020606584F83570BCE7206846619D
:101A60002046FFF781FA94F85C203F219140816085
:101A7000656584F835700020AEE700003F8010F007
:101A80002DE9F0410446866D90F8340000250128C8
:101A90000DD0012084F8340094F835700020012F17
:101AA00007D084F8340002252846BDE8F0810220E2
:101AB000FBE7022784F8357060652046FFF792FA4D
:101AC00094F85C103F208840B0602068016841F0C5
:101AD000160101602068416941F080014161206C7C
:101AE00020B12068016841F00801016020680168A8
:101AF00041F001010160D7E731B500F005F9044676
:101B000000F002F90099001B8842F9D338BD7047F4
:101B1000044910B50A68024202D00860FFF7F7FFD7
:101B200010BD0000143C01402DE9F84FDFF890B1E2
:101B300000224FF001084FF0030A4FF00F090BF19C
:101B4000040E00BF0B6808FA02F42340A3426ED1D2
:101B50004D68022D01D0122D0ED1D50800EB850C59
:101B6000DCF820505607F70E09FA07F6B5430E6960
:101B7000BE402E43CCF82060066855000F790AFA63
:101B800005FC07F0030726EA0C06AF403743076061
:101B90004E68012E05D0022E03D0112E01D0122E38
:101BA0000ED18768CE6827EA0C07AE403E438660B8
:101BB0004668A6430C79C4F300149440344344604F
:101BC000C4688E6824EA0C04AE402643C6604C68A4
:101BD000E4006FD53B4C256845F4804525602468BA
:101BE00022F0030504F480440094374C2E19D6F8F3
:101BF000084895072F0F09FA07F5AC43334DA84263
:101C000001D100252EE0324DA84201D1012529E065
:101C1000304DA84201D1022524E02F4DA84201D128
:101C200003251FE02D4DA84202D104251AE041E012
:101C30002B4DA84201D1052514E02A4DA84201D11F
:101C400006250FE0284DA84201D107250AE0274DBF
:101C5000A84201D1082505E0254DA84201D109255A
:101C600000E00A25BD402543C6F80858DBF80040CF
:101C70005D464E689C43F60300D51C432C60DEF89D
:101C8000004075464E689C43B60300D51C432C604B
:101C90000B4D08352C684E689C43F60200D51C435A
:101CA0002C60074D0C352C684E689C43B60200D55D
:101CB0001C432C60521C102AFFF444AFBDE8F88F7F
:101CC000003C014044380240003001400000024026
:101CD0000004024000080240000C024000100240D4
:101CE0000014024000180240001C02400020024084
:101CF000002402400069084000D0012070470AB16A
:101D0000816170470904FBE70148006870470000E3
:101D1000B400002070B5040011D021684CF6CC400E
:101D20000860216845F255500860D4E9000141601F
:101D30002168A0688860FFF7E7FF054609E00120F9
:101D400070BD00BFFFF7E0FF401B302801D9032022
:101D500070BD2068C0680028F4D121684AF6AA2026
:101D60000860002070BD00684AF6AA2101600020CA
:101D70007047000002480168491C0160704700007C
:101D8000B40000200B4810B5016841F400710160F7
:101D9000016841F480610160016841F48071016073
:101DA000032000F0BBF8002000F006F800F018F85F
:101DB000002010BD003C024010B5044607484FF417
:101DC0007A710068B0FBF1F001F07DF80022214645
:101DD000501E00F083F8002010BD0000BC00002061
:101DE00010B5052000F09AF8002211466FF00B00A4
:101DF00000F074F8002211466FF00A0000F06EF84F
:101E0000002211466FF0090000F068F80022114628
:101E1000501F00F063F800221146101F00F05EF81A
:101E200000221146901E00F059F80022BDE8104033
:101E30001146501E00F052B82DE9F04116460F46EB
:101E4000040004D094F83900002518B107E00120FF
:101E5000BDE8F08184F83850204601F063FC24206E
:101E600084F839002068C16821F40051C16020461F
:101E700003F0CCFB2068016921F4904101612068E6
:101E8000416921F02A0141612068016921F00F01B7
:101E9000016120680169394301612068C16821F44A
:101EA0000061C1602068C1683143C1602068C168B9
:101EB00041F40051C160E563202084F8390084F8C2
:101EC0003A000020C4E700F01F02012191404009C0
:101ED000800000F1E020C0F800117047F0B40E4B14
:101EE0001B680C46C3F30223C3F10705042D00D978
:101EF0000425191D072901D2002300E0DB1E01265D
:101F000006FA05F1491E214099409E40761E164072
:101F10003143F0BC02F07DBB0CED00E0064900F05F
:101F2000070208684FF6FF03184040EA0220034A00
:101F300010430860704700000CED00E00000FA0557
:101F4000D0F8B40303F054BEC1EBC10200EB82022F
:101F5000D0F8B403526C03F0C1BDC1EBC10200EB79
:101F60008202D0F8B403D2F8E82103F00CBED0F816
:101F7000B40303F03FBE70B50A460446090602F0FA
:101F80007F0005D5C0EBC00104EB8101383105E0CD
:101F9000C2EBC20104EB810101F5EE7100258D70E9
:101FA0000870D009487094F88003012809D00120F6
:101FB00084F88003206804F040F984F880530020FE
:101FC00070BD022070BD70B504460D460E0601F0CE
:101FD0007F00C0EBC00104EB810101D5383101E085
:101FE00001F5EE71ED0908704D708A60CB7000D07C
:101FF000C8800025022B00D10D7194F880030128C0
:1020000009D0012084F88003206803F0FDFF2846F2
:1020100084F8805370BD022070BD000070B5044686
:102020000E4601F07F00C0EBC00104EB81010025EA
:10203000C1F8E821C1E97C3581F8DD5181F8DC0186
:10204000206901F5EE71012800D10A6194F880033E
:1020500001280DD0012084F880037006227C2068BE
:1020600008D004F04BF900BF84F88053002070BD05
:10207000022070BD04F022F8F6E770B50D46044664
:10208000090605F07F0005D5C0EBC00104EB810116
:10209000383105E0C5EBC50104EB810101F5EE71B6
:1020A00001228A700870E809487094F880030128BA
:1020B00007D084F88023206804F0F1F8680602D085
:1020C00007E0022070BD217C04F56172206804F0F5
:1020D00095F8002084F8800370BD70B504460E4664
:1020E00001F07F00C0EBC00104EB810100254A64D0
:1020F000C1E91335012381F8393001F8380F20691F
:10210000012800D10A6194F8800301280BD084F8DB
:1021100080337006227C206807D004F0EFF884F842
:102120008053002070BD022070BD03F0C7FFF6E7AA
:102130002DE9F84F044600680026054604F01CFA15
:10214000002875D1206804F040FA002870D020687B
:1021500004F03BFA800704D52068416901F00201D0
:102160004161206804F031FA010304F561704FF019
:10217000010B4FF0000A00904DD5206804F007FADB
:10218000074646E0F80742D0F1B2206804F015FA9D
:102190008046C00728D005EB4612C2F808BB20696C
:1021A000012811D1C6EBC60004EB8001D2F8102B38
:1021B000D1F8E401C2F31202821AC1F8F421D1F875
:1021C000E8211044C1F8E801F1B22046FFF7C5FE4E
:1021D0002069012808D13EB9D4F8F00120B920685F
:1021E0000121009A04F00AF85FEA087007D520463A
:1021F00000F04AFA05EB46110820C1F8080B5FEA27
:10220000C86004D505EB46111020C1F8080B7F0803
:10221000761C002FB6D1206804F0D7F940034FF0A8
:1022200040095ED5206804F0ABF90746002656E069
:10223000D2E1F80751D0F1B2206804F0AFF980463E
:10224000C00724D0D5F834280BFA06F08243C5F82D
:10225000342805EB4610C0F808B92069012807D1D9
:10226000C6EBC60004EB8000D0E9101211444164B3
:10227000F1B22046FFF768FE2069012807D136B980
:10228000E06C20B920680121009A03F0B7FF5FEAF3
:10229000087004D505EB46110820C1F808095FEA6B
:1022A000C86004D505EB46111020C1F808095FEAA3
:1022B000486003D505EB4611C1F808995FEA8870BC
:1022C00004D505EB46110220C1F808095FEA086051
:1022D00003D53146204602F06FFB7F08761C002FA5
:1022E000A7D1206804F071F900280DDAD5F80408A8
:1022F00020F00100C5F80408204600F0ABF9216881
:10230000486900F000404861206804F05EF900056B
:102310000BD5D5F80808C00702D0204600F0BCF95C
:102320002068416901F400614161206804F04DF9C1
:10233000C0044CD5D5F8040820F00100C5F8040805
:102340000021206804F0E8F80020FF2107E000BF2A
:1023500005EB4012C2F80819C2F8081B401C62685D
:102360008242F5D84FF0FF30C5F81808D5F81C08A0
:1023700040F00110C5F81C08206B60B1D5F8840846
:1023800040F00B00C5F88408D5F8440840F00B0075
:10239000C5F844080BE0D5F8140840F00B00C5F868
:1023A0001408D5F8100840F00B00C5F81008D5F84F
:1023B000000820F4FE60C5F80008217C2068009A1F
:1023C00003F01CFF2168486900F4805048612068D0
:1023D00004F0FBF880047DD5206803F055FE2068EA
:1023E000C16821F47051C160206804F0A7F878B189
:1023F0000320C4F81490E06000F024FA7749784A8A
:10240000014491420AD22068C16841F4705158E0F9
:102410004FF40070C4F80CA0606136E07149724A54
:102420000144914204D22068C16841F4605148E0FF
:102430006E496F4A0144914204D22068C16841F458
:1024400050513EE06B496C4A0144914204D22068ED
:10245000C16841F4405134E06849694A01449142FD
:1024600004D22068C16841F430512AE06549664AC7
:102470000144914204D22068C16841F4205120E017
:102480006249421862498A4204D22068C16841F414
:10249000105116E05F49604A0144914204D220681D
:1024A000C16841F400510CE05C4908445C49884231
:1024B0002068C16803D241F4E05102E00AE041F42F
:1024C000C051C160204600F0B5F82068416901F4B0
:1024D00000514161206804F078F8C00636D52168C3
:1024E000886920F010008861D5F8208008F00F007E
:1024F000C0EBC00004EB8007C8F3434007F5EE775C
:10250000022802D0062812D01BE047F6F07018EA25
:10251000000F16D0C8F30A1290462846F96804F056
:1025200058F8F8684044F860B869404408E0082268
:102530002846009904F04DF8B969C8F30A10084418
:10254000B8612068816941F010018161206804F060
:102550003CF8000707D5204600F080F82068416964
:1025600001F008014161206804F02FF8C00208D58D
:10257000F1B2204600F056F82068416901F480115C
:102580004161206804F021F8800208D5F1B22046AC
:1025900000F04CF82068416901F4001141612068A5
:1025A00004F013F8400007D52046FFF7C9FC206867
:1025B000416901F080414161206804F006F840075C
:1025C0000AD520684568680702D52046FFF7CFFC8A
:1025D0002068416829434160BDE8F88F405327FFD8
:1025E00000350C00401E1BFF40420F0000DC0BFFBB
:1025F000804F1200808CF9FE20D6130060B6E5FEF5
:1026000060E3160000D3CEFE40771B00C05BB3FE34
:10261000C091210000CA91FE20753800E05459FE97
:10262000E09C4100D0F8B40303F0FFBAD0F8B40343
:1026300003F0FDBA10B50446C068012100B90021BD
:10264000D4F8B40303F037FBD4F8B403BDE810406A
:1026500003F000BBD0F8B40303F01BBBD0F8B40305
:1026600003F01DBB10B5044690F88003012809D083
:10267000012084F88003206803F0BBFF002084F869
:10268000800310BD022010BDD0F8B42300F56171A5
:10269000104603F01ABB000010B50446D0F8B4038E
:1026A00003F047FB2068D0F8001E41F00101C0F89C
:1026B000001E206A002804D00248016841F006018B
:1026C000016010BD10ED00E02DE9F047DFF86491E6
:1026D00005460F46D9F8000000F00F01F8B2804619
:1026E000B94208D2014689F80010D9F8000000F07C
:1026F0000F00B84274D128784F4C800705D5206868
:10270000A96820F0F000084320602878C00759D05D
:1027100049496868083901281AD002281BD00328C3
:1027200019D00968890700295ADA216821F00301C4
:1027300001432160FFF7E8FA6968064641F28830F4
:10274000012911D002291DD00329824627D035E066
:1027500009688903E7E709688901E4E7FFF7D4FA24
:10276000811B514501D926E082462068C0F38100D3
:102770000128F3D126E000BFFFF7C6FA811B5145BF
:1027800001D918E082462068C0F381000228F3D105
:1027900018E000BFFFF7B8FA811B51450BD820683D
:1027A000C0F381000328F5D10CE000BFFFF7ACFABD
:1027B000811B514502D90320BDE8F087206810F045
:1027C0000C0FF3D1D9F80010484601F00F01B942BF
:1027D00008D980F80080006800F00F00B84201D0EE
:1027E0000120E9E72878400705D52068E96820F44A
:1027F000E050084320602878000706D52068296942
:1028000020F4604040EAC100206000F051F82168E7
:10281000F02292FAA2F201F0F001B2FA82F2D14073
:10282000064A515CC840064908600020FFF7C4FA18
:102830000020C1E7003C024008380240CC7C000880
:10284000BC0000200148006870470000BC00002068
:1028500008480949006809684FF4E05292FAA2F268
:1028600001F4E051B2FA82F2D140044A515CC8400E
:1028700070470000BC00002008380240CC7C0008F3
:1028800008480949006809684FF4604292FAA2F2C8
:1028900001F46041B2FA82F2D140044A515CC8406E
:1028A00070470000BC00002008380240CC7C0008C3
:1028B00030B51948006810F00C01184812D0184CB7
:1028C00004290ED008290DD11349091F0A6802F006
:1028D0003F030A68550247F6C07204D5B4FBF3F013
:1028E00003E0204630BDB0FBF3F00B6809681340ED
:1028F00092FAA2F2B2FA82F2D34058434FF4403235
:1029000092FAA2F201F44031B2FA82F2D140491CAB
:102910004900B0FBF1F030BD083802400024F4005B
:10292000001BB7002DE9F84F0446DFF8CC82007891
:10293000A8F1040BC007ABF1040537D0D8F800109C
:102940004046C1F38101012908D00068C0F381002D
:1029500002280AD1DBF80000400206D5286880036F
:1029600024D56068002878D020E0A3492079891F09
:102970000870606868B1FFF7C7F9064605E000BF58
:10298000FFF7C2F9801B642868D828688003F7D550
:102990000CE0FFF7B9F9064605E000BFFFF7B4F910
:1029A000801B6428F0D828688003F7D42078934EE1
:1029B00080074FF0010A4FF0000742D5D8F8001009
:1029C000404611F00C0F08D00068C0F381000228C7
:1029D0000AD1DBF80000400206D42868800714D52D
:1029E000E068012839D110E0E068D8B1C6F800A04D
:1029F000FFF78AF9814605E0FFF786F9A0EB0900A9
:102A00000228C1D828688007F6D52868F82292FAEB
:102A1000A2F22169B2FA82F220F0F8009140084354
:102A200028600EE03760FFF76FF9814606E000BFCF
:102A3000FFF76AF9A0EB090002280FD82868800781
:102A4000F6D42078000728D56D486169A1B1C0F897
:102A500000A0FFF759F9814608E0CAE079E000BF1D
:102A6000FFF752F9A0EB0900022872D862486C30D7
:102A700000688007F4D510E00760FFF745F981464C
:102A800006E000BFFFF740F9A0EB0900022860D87C
:102A900059486C3000688007F4D42078400749D545
:102AA00055483830016841F080510160006800F0FD
:102AB000805000905348016841F480710160FFF735
:102AC00023F9814606E000BFFFF71EF9A0EB0900DD
:102AD00002283ED84B480068C005F5D5DFF81891AC
:102AE000207A09F1680989F80000A06888B1FFF729
:102AF0000BF9009008E000BFFFF706F90099411AB2
:102B000041F2883081426CD8D9F800008007F3D5B3
:102B100010E0FFF7F9F8009008E000BFFFF7F4F8C5
:102B20000099411A41F2883081425AD8D9F8000000
:102B30008007F3D4A069E0B3D8F80010C1F3810195
:102B4000022956D00228376604D0FFF7DDF8044684
:102B50004AE046E0FFF7D8F8074604E0FFF7D4F86C
:102B6000C01B02283DD828688001F7D4D4E90701AA
:102B7000084347F6C07292FAA2F2616AB2FA82F290
:102B80009140A26A4FF0FF3303EB52024FF44033FF
:102B900093FAA3F3B3FA83F39A40114308434FF037
:102BA000706292FAA2F2E16AB2FA82F291400843AC
:102BB00000E01CE0CBF80000C6F860A0FFF7A4F826
:102BC000044604E0FFF7A0F8001B022809D8286893
:102BD0008001F7D50BE000BFFFF796F8001B022835
:102BE00002D90320BDE8F88F28688001F4D40020C2
:102BF000F8E70120F6E700000838024000004742ED
:102C0000800E47420070004070B5040005D00025DA
:102C1000A56294F8510010B106E0012070BD84F85F
:102C20005050204600F030F8022084F8510020680F
:102C3000016821F040010160D4E901010843D4E9B1
:102C400003121143084361690843218B01F40071A9
:102C50000843E1690843216A0843A16A08432168DF
:102C60000860A069042101EA1040616A08432168F4
:102C700048602068C16921F40061C1616565012077
:102C800084F85100002070BD00B500680E4987B07F
:102C9000884217D10D480021026842F48012026078
:102CA000006800F4801005904FF4607000900220DE
:102CB000CDE90101032003900520049069460448F2
:102CC000FEF732FF07B000BD00500140443802401B
:102CD000001402402DE9F84F044690F850000026F9
:102CE0000A9F9A4693460D464FF0010801280ED0E0
:102CF000012084F85000FFF707F8814694F851004E
:102D0000616801280CD0B1F5827F07D102E0022072
:102D1000BDE8F88FA16809B9042801D00226BDE0FA
:102D200055B1BBF1000F07D0BAF1000F04D094F8F1
:102D30005100012802D004E00126AFE0052084F80C
:102D4000510000206065C4F838B0A4F83EA0A4F893
:102D50003CA02563A4F836A0A4F834A020646064E5
:102D600020680168490603D4016841F04001016010
:102D7000E068B0F5006F606804D0E8B3E08E012829
:102D80003BD06AE010B1E08E01282ED1216835F8E1
:102D9000020BC860E08E401EE08626E0B8F1000F0E
:102DA0000DD0E08E58B120688168890707D535F8C5
:102DB000021BC160E08E401EE0864FF00008E08FED
:102DC00058B120688168C90707D0C0682BF8020B8A
:102DD000E08F401EE0874FF00108781C05D0FEF719
:102DE00093FFA0EB0900B84246D2E08E0028D5D16F
:102DF000E08F0028D2D136E0FFE7216815F8010BFB
:102E00000873E08E401EE08627E000BFB8F1000F97
:102E10000DD0E08E58B120688168890707D515F874
:102E2000011B0173E08E401EE0864FF00008E08F2A
:102E300058B120688168C90707D0C0680BF8010B3A
:102E4000E08F401EE0874FF00108781C05D0FEF7A8
:102E50005BFFA0EB0900B8420ED2E08E0028D5D16E
:102E6000E08F0028D2D13B46012202212046CDF836
:102E7000009001F073FF08B103260FE04A4639467F
:102E8000204601F05BFF18B101262020606505E0B7
:102E9000A06818B92068C16880680090012084F893
:102EA0005100002084F85000304631E74FF0E02117
:102EB0000428086903D020F004000861704740F03E
:102EC0000400FAE7704710B5401EB0F1807F01D3CF
:102ED000012010BD4FF0E02460610F21601701F068
:102EE00098FB0020A06107202061002010BD10B5D4
:102EF000FFF7E8FF10BD7047704730B590F83820F5
:102F0000012A19D0012200F8382F02234370D1E999
:102F100000342343D1E902452C4323430C69234366
:102F20004C69896923430B4350F8381C4B64427049
:102F300000210170084630BD022030BD30B590F848
:102F40003820012A20D0012280F83820022380F87E
:102F5000393003685C6824F070045C6003685C6866
:102F60000D682C435C6003689C6824F080049C60BE
:102F700003689C6849680C439C6080F839200021F4
:102F800080F83810084630BD022030BD10B504006E
:102F900003D094F8390010B107E0012010BD0020E3
:102FA00084F83800204600F00DF8022084F839003B
:102FB000211D206802F074F8012084F839000020F7
:102FC00010BD000008B501683248B1F1804F0BD048
:102FD000314A914210D1016841F00201016000685C
:102FE00000F00200009008BD016841F0010101609D
:102FF000006800F00100F5E7284A914207D1016816
:1030000041F004010160006800F00400EAE7244A8E
:10301000914207D1016841F008010160006800F0A9
:103020000800DFE71F4A91420ED1016841F010010C
:1030300001600068012200F010000090002136209D
:10304000FEF74CFF362010E0174A914211D101687B
:1030500041F0200101600068012200F02000009092
:1030600000213720FEF73AFF3720BDE80840FEF781
:103070002ABF0E4A914202D10648001DABE70C4A16
:103080009142B0D1016841F040010160006800F058
:103090004000A7E74038024000040040000800401C
:1030A000000C0040001000400014004000040140EB
:1030B000001800400168CA6842F00102CA60006856
:1030C000016841F0010101600020704770B50446BD
:1030D00090F83800012817D0012584F838500220D4
:1030E00084F839002068826822F0770222F47F4257
:1030F00082600868502837D00DDC202859D005DCC4
:1031000088B3102841D151E0022070BD302853D03F
:1031100040283AD13FE060282ED070280BD0B0F57F
:10312000805F03D0B0F5005F2FD110E02068816888
:1031300021F0070115E0CB68D1E90121206802F0F8
:103140001AF82168886840F0770088601DE0CB6835
:10315000D1E90121206802F00EF82068816841F46D
:103160008041816011E01EE0CA684968206802F071
:10317000D3F85021206806E0CA684968206802F048
:10318000DCF86021206802F000F884F83950002053
:1031900084F8380070BDCA684968206802F0BCF83D
:1031A00040212068EFE700212068ECE7102120682B
:1031B000E9E720212068E6E730212068E3E770474F
:1031C00070B50446006801694FF00005C9438907DE
:1031D00015D4C168C943890711D4E91E01610120D2
:1031E0002076206880698007204602D0FFF7E7FF3D
:1031F00004E000F00BF9204600F08DF925762068F8
:103200000169C943490717D4C168C943490713D4A1
:103210006FF004010161022020762068806910F4BB
:10322000407F204602D0FFF7CAFF04E000F0EEF82E
:10323000204600F070F9257620680169C943090726
:1032400016D4C168C943090712D46FF0080101619F
:10325000042020762068C0698007204602D0FFF74E
:10326000AEFF04E000F0D2F8204600F054F92576D5
:1032700020680169C943C90617D4C168C943C90692
:1032800013D46FF010010161082020762068C06916
:1032900010F4407F204602D0FFF791FF04E000F0D9
:1032A000B5F8204600F037F9257620680169C94352
:1032B000C90708D1C168C943C90704D1891E016182
:1032C000204600F045F920680169C943090609D480
:1032D000C168C943090605D46FF080010161204629
:1032E000FFF709FE20680169C943490609D4C1688E
:1032F000C943490605D46FF040010161204600F042
:1033000028F920680169C94389060BD4C168C943FB
:10331000890607D46FF0200101612046BDE87040A6
:10332000FFF7EABD70BD000070B5016800240225FA
:10333000012086B0B1F1804F09D02A4A914213D1C1
:1033400010200090CDE90154694627482CE00F2158
:103350000091CDE90154CDE903402448694600BFFE
:10336000FEF7E2FB06B070BD214A914207D14FF44F
:1033700070400090CDE9015469461E4814E01E4B90
:103380001E4A1F4E994212D10090CDE90154694660
:103390001046CDE90345FEF7C7FB4FF4E05000901F
:1033A000CDE9015469463046CDE90345D8E71548D3
:1033B000814209D1E4200090CDE901540320CDE9F8
:1033C000034069461046CBE70F488142CAD14FF40B
:1033D00010700090CDE901540920CDE90340694601
:1033E0003046BDE7000400400004024000000240F7
:1033F00000080040000C0240000C00400020024089
:10340000001C02400004014000180040704770B5E5
:10341000044690F838000D4601280DD0012684F8A6
:103420003860022084F8390042B1042A18D0082AF2
:103430002AD00C2A4DD139E0022070BD206801F05D
:10344000ADFE2068816941F00801816120688169D1
:1034500021F004018161206881692A69114311E02A
:10346000206801F0C7FE2068816941F40061816134
:103470002068816921F480618161206881692A69FD
:1034800041EA0221816124E0206801F0E5FE206824
:10349000C16941F00801C1612068C16921F00401DE
:1034A000C1612068C1692A69114311E0206801F0F7
:1034B00003FF2068C16941F40061C1612068C169EE
:1034C00021F48061C1612068C1692A6941EA022151
:1034D000C16184F83960002084F8380070BD10B5EF
:1034E000040003D094F8390010B107E0012010BDAA
:1034F000002084F83800204600F00CF8022084F800
:103500003900211D206801F0CBFD012084F839002D
:10351000002010BD7047704710B5044600680122B6
:1035200001F01EFE08492068884202D007498842FF
:1035300003D1416C41F4004141642068016841F0CD
:1035400001010160002010BD0000014000040140A5
:103550007047704710B504460068416994F83920F7
:10356000C1F3C011212A0BD151B1416921F0800171
:103570004161206B08B1FEF7EDF8204601F0ECFF49
:103580002068416994F83A20C1F38011222A0BD1B6
:1035900051B1416921F040014161606B08B1FEF712
:1035A000D9F8204601F0CAFF002010BD7047000086
:1035B00070B5026804461068D168536910F00F0FA7
:1035C00050D003F0010501F4907635435DD0C20779
:1035D00005D0CA0503D5E26B42F00102E26342075F
:1035E00005D5DA0703D0E26B42F00202E2638207FC
:1035F00005D5DA0703D0E26B42F00402E26302076A
:1036000005D5DA0703D0E26B42F00802E263E26B11
:10361000002A33D0800604D5880602D5204601F062
:10362000A4FF20684069E16BC0F38010090700D453
:1036300028B3204601F082FF2068416949061AD567
:10364000416921F040014161606BA0B11B490165F6
:10365000606BFEF7C6F8002810D0606B016DBDE806
:1036600070400847830610D58B060ED52046BDE86E
:10367000704001F07ABF2046FFF798FF70BD2046EA
:10368000FFF794FF0020E06370BD030606D50B062C
:1036900004D52046BDE8704002F00EB94006F3D5CF
:1036A0004806F1D5D168204621F04001D1602021A3
:1036B00084F8391000F09FF970BD00009D54000897
:1036C00070B5040004D094F83900002510B106E06C
:1036D000012070BD84F83850204600F023F82420E3
:1036E00084F839002068C16821F40051C160204687
:1036F00001F08CFF2068016921F49041016120688C
:10370000416921F02A0141612068C16841F40051FA
:10371000C160E563202084F8390084F83A00002075
:1037200070BD0000F0B506460568494800244949C7
:1037300002220323072787B085422FD1086840F073
:10374000100008600868694600F010000590C0206D
:103750008DE81500CDE903373F48FEF7E5F9404D08
:103760003E4828604FF00060C5E901044014C5E9F7
:10377000034080106C61C5E906402C6228466C62EB
:10378000FEF716F908B1FDF745FC7563022200212A
:103790002520AE63FEF7A2FB25201BE02D48314E0D
:1037A000001FB5421AD1016841F400310160006880
:1037B000694600F4003005900C208DE81500CDE935
:1037C00003372948FEF7B0F9002201212620FEF731
:1037D00085FB2620FEF777FB07B0F0BD234EB542F0
:1037E00018D1016841F4802101600068694600F445
:1037F000802005904FF440708DE81500CDE9033727
:103800001B48FEF791F9002201212720FEF766FBF5
:103810002720DFE717488542DED1086840F0200006
:1038200008600868694600F0200005904FF4844065
:103830008DE815000820CDE903300F48FEF774F934
:10384000002201214720FEF749FB4720C2E7000084
:10385000001001404438024000040240406402402D
:10386000400B00200044004000000240004800409F
:10387000000C0240001401400018024070B50446DC
:1038800090F83A00202839D1A9B3A2B394F83800AF
:10389000012833D0012084F83800A162A2850025D8
:1038A000E563222084F83A00636B1548D863636BA4
:1038B00014481864636B1448D864606B134605653C
:1038C0000846666B216802463046091DFEF7D8F8A7
:1038D0002068C16841F48071C1602068416941F08D
:1038E000010141612068416941F04001416184F872
:1038F0003850002070BDFFE70120FBE70220F9E708
:10390000F754000833550008AD54000890F83A30D9
:10391000202B1DD1D1B1CAB190F83830012B17D06E
:1039200081628285C2850021C163222280F83A200B
:1039300080F8381001684A6942F001024A61006863
:10394000C16841F49071C160002070470120704748
:1039500002207047F8B505462149012400208D4218
:1039600029D109680A68496800911E491E4A0B78E6
:10397000127833B91C4B4E8832339A554B885B1CF6
:103980004B804B78012B03D14B885B0700D188809B
:10399000FE2A07D14A88082A03D30C704C7048804D
:1039A00000E008704A88FA2A00D3488001220E49B4
:1039B0000B48FFF7ABFF0D4EB5420FD102F0F6FEFC
:1039C0000B48047030680168406800903046BDE8DC
:1039D000F840054912223239FFF798BFF8BD0000C0
:1039E000000B00205E0000209A030020800A0020C7
:1039F0000100002070477047FEE70020401C32287D
:103A0000FCD3704710B50F4C012211462046FEF73B
:103A100076F9FFF7F2FF012202212046FEF76FF947
:103A2000FFF7EBFF002202212046FEF768F9FFF7BF
:103A3000E4FF002201212046FEF761F9BDE81040B5
:103A4000FFF7DBBF0004024010B50F4C002201213C
:103A50002046FEF754F9FFF7D0FF0022022120464E
:103A6000FEF74DF9FFF7C9FF012211462046FEF788
:103A700046F9FFF7C2FF012202212046FEF73FF977
:103A8000BDE81040FFF7B9BF0004024010B5084C74
:103A9000012211462046FEF732F9FFF7AEFF002261
:103AA00001212046FEF72BF9BDE81040FFF7A5BF26
:103AB000000402401FB50E2269463B2000F0BAF810
:103AC000BDF8000041BA16480180BDF8021049BA9D
:103AD0004180BDF8041049BA8180BDF8061049BA8A
:103AE000C18000F114019DF809200B89D21A9DF8BC
:103AF000083042EA032202819DF80B204B89D21A3A
:103B00009DF80A3042EA032242819DF80D208989FE
:103B1000511A9DF80C2041EA022181811FBD00004D
:103B2000A00700200148FEF71EB90000580F002032
:103B3000044A034B1360C2E901011046FEF7EAB8DC
:103B400000300040580F002070B5104C104D4FF45D
:103B50008066207820B131462846FEF7CBF840B188
:103B600031462846FEF7C6F808B101202070002033
:103B700070BD0A2002F0E6FE002020703146284683
:103B8000FEF7B8F80028F2D1012070BD9A0000209D
:103B9000000C024030B585B0002414220F4968465D
:103BA000FCF720FB6420FDF7A7FF752000F01AF852
:103BB0000B494FEA0D05087005EB4400417815F8F4
:103BC000140000F065F80120FDF796FF641CE4B2D4
:103BD0000A2CF1D305B0002030BD0000A07400080D
:103BE0009B000020F8B5104E0446002240213046CC
:103BF000FEF785F844F080000C4C3725E21C20715C
:103C00000123511C0A480095FFF764F8E21C0123C8
:103C1000511C07480095FFF75DF80122402130460E
:103C2000FEF76DF8E078F8BD001402409B0000201C
:103C3000280A0020F8B5134F15460E460446002208
:103C400040213846FEF75BF80F4944F080003724E6
:103C50008871C91D8A1E08700123491E0B480094F3
:103C6000FFF738F808492B463246C91D074800942B
:103C7000FFF730F8012240213846FEF740F80020D7
:103C8000F8BD0000001402409B000020280A00201C
:103C9000F8B5114F0E460446002240213846FEF783
:103CA0002EF804F07F000D4C3725621CA070012314
:103CB000511C0B480095FFF70DF8A670621C0123FC
:103CC000511C07480095FFF705F8012240213846AE
:103CD000FEF715F80020F8BD001402409B000020FC
:103CE000280A0020104810B50E49016003214160E8
:103CF00000214FF400228160C0E903124FF440120A
:103D0000C0E90521C1610162416281620121C16294
:103D1000FDF7B6FA002803D0BDE81040FDF77AB9E8
:103D200010BD000000640040A8090020094808B543
:103D3000016841F4800101600068002200F4800005
:103D4000009011463A20FEF7C9F8BDE808403A2035
:103D5000FEF7B9B8303802402DE9F0474D4886B03B
:103D60000024016841F010010160016801F01001B8
:103D70000591016841F040010160016801F04001D6
:103D80000591016841F002010160016801F0020142
:103D90000591016841F001010160016801F0010134
:103DA0000591016841F008010160016801F0080116
:103DB0000591016841F480710160016801F480712E
:103DC0000591016841F080010160016801F0800106
:103DD0000591016841F0200101600068DFF8B8A09A
:103DE00000F02000059000228C215046FDF787FF4F
:103DF000DFF8A8804FF40056002231464046FDF718
:103E00007EFFDFF89C9044F2400700223946484686
:103E1000FDF775FF0C200125CDE900050320CDE954
:103E2000024069465046FDF77FFE022000901D4883
:103E3000CDE9010469465046FDF776FE0096CDE9CE
:103E40000154694640460394FDF76EFE0097CDE9A4
:103E50000154694648460394FDF766FEA802CDE981
:103E60000004694610480294FDF75EFE8020009031
:103E7000CDE90154694650460394FDF755FE0222F0
:103E800000210720FEF72AF80720FEF71CF806B0ED
:103E9000BDE8F087303802400010024000180240B0
:103EA0000014024000001110000C0240104810B530
:103EB0000E4901604FF48271416000218160C16050
:103EC0004FF400720161C0E905123022C0E90721F8
:103ED000416281620A21C162FEF796FE002803D08A
:103EE000BDE81040FDF796B810BD0000005001403D
:103EF000280A002010B520488CB01E4901605321CB
:103F00000024C0E9011442F20F71C0E90314FFF765
:103F10003DF808B1FDF77EF84FF48050079007A9EF
:103F20001548FFF7D3F808B1FDF774F81248FFF70A
:103F3000D6FA08B1FDF76EF8602000904FF4FA70E1
:103F4000CDE90104002269460B480494FFF75FFAAB
:103F500008B1FDF75FF80422694607480194FFF7AE
:103F600056FA08B1FDF756F80348FFF7DDF90CB033
:103F700010BD0000001800406C09002010B51E485C
:103F80008EB01C49016053210024C0E90114C460B3
:103F90000461FEF7FBFF08B1FDF73CF84FF48050D9
:103FA000079007A91448FFF791F808B1FDF732F818
:103FB0001148FFF794FA08B1FDF72CF80B940BA900
:103FC0000D480C94FEF7BAFF08B1FDF723F8602006
:103FD000CDE9000402940022694607480494FFF7E3
:103FE00016FA08B1FDF716F80348FFF79DF90EB071
:103FF00010BD0000000400400408002010B529484E
:104000008EB027490024C0E900148460C4600461B4
:10401000FEF7BCFF08B1FCF7FDFF4FF4805007909E
:1040200007A92048FFF752F808B1FCF7F3FF1D4835
:10403000FFF755FA08B1FCF7EDFF0B940BA91948EF
:104040000C94FEF77BFF08B1FCF7E4FF6020CDE99C
:10405000000402940022694612480494FFF7D7F93D
:1040600008B1FCF7D7FF042269460E48FFF7CFF9E5
:1040700008B1FCF7CFFF082269460A48FFF7C7F9E5
:1040800008B1FCF7C7FF0C2269460648FFF7BFF9E5
:1040900008B1FCF7BFFF0348FFF746F90EB010BDAB
:1040A000000800404008002010B529488EB027497C
:1040B0000024C0E900148460C4600461FEF766FF58
:1040C00008B1FCF7A7FF4FF48050079007A92048DC
:1040D000FEF7FCFF08B1FCF79DFF1D48FFF7FFF955
:1040E00008B1FCF797FF0B940BA919480C94FEF745
:1040F00025FF08B1FCF78EFF6020CDE90004029493
:104100000022694612480494FFF781F908B1FCF7D0
:1041100081FF042269460E48FFF779F908B1FCF7E0
:1041200079FF082269460A48FFF771F908B1FCF7E0
:1041300071FF0C2269460648FFF769F908B1FCF7E0
:1041400069FF0348FFF7F0F80EB010BD000C004007
:104150007C0800201CB50E480C4900240160532146
:10416000C0E901144FF47A71C160FEF70FFF08B186
:10417000FCF750FF0094694605480194FEF7DEFE07
:10418000002801D0FCF746FF1CBD000000100040D5
:10419000B80800201CB50E480C49002401605321CA
:1041A000C0E901144FF47A71C160FEF7EFFE08B167
:1041B000FCF730FF0094694605480194FEF7BEFE07
:1041C000002801D0FCF726FF1CBD000000140040B1
:1041D000F408002010B5344894B032490160A7219A
:1041E0000024C0E90114C46004614461FEF7CEFEFE
:1041F00008B1FCF70FFF4FF480500E900EA92A482B
:10420000FEF764FF08B1FCF705FF2748FFF767F9E1
:1042100008B1FCF7FFFE129412A923481394FEF78D
:104220008DFE08B1FCF7F6FE6020CDE90004029493
:10423000039404940594002269461B480694FFF7F2
:10424000E6F808B1FCF7E6FE042269461648FFF7D7
:10425000DEF808B1FCF7DEFE082269461248FFF7D7
:10426000D6F808B1FCF7D6FE0C2269460E48FFF7D7
:10427000CEF808B1FCF7CEFE0794089409944FF4E9
:1042800000500A94CDE90B4007A907480D94FEF7AA
:1042900034FE08B1FCF7BEFE0348FFF745F814B042
:1042A00010BD000000040140300900200D4810B589
:1042B0000B4901600C49416000214FF4806281602C
:1042C000C0E903120422C0E905210A46C161FDF7D5
:1042D000B3FD002803D0BDE81040FCF79BBE10BD25
:1042E00000100140800A0020A08601000D4810B592
:1042F0000B4901604FF4E1314160002181600C22E3
:10430000C160C0E9041281610A46C161FDF794FDF4
:10431000002803D0BDE81040FCF77CBE10BD0000B3
:1043200000480040C00A00200848074901604FF4D7
:10433000E1314160002181600C22C160C0E90412BA
:104340008161C161FFF7BCB900140140000B00207E
:10435000FEE700002DE9F05F9B489C4C90F834008C
:1043600080B19B48D0F8350000EE100ABDEEC00ABF
:1043700010EE100A01B2944800F062FB41F2CC0149
:10438000081AA083934DDFF850B2944E287A002784
:104390004FF0010958B101280FD1688A00F07EFA68
:1043A000688A00F0DDFF287C012815D019E0FCF7B1
:1043B00037FD687A022802D03771BDE8F09F307966
:1043C0000028FAD186F80490BBF802100329F4D231
:1043D000491CABF80210F0E7687A03280BD00228DA
:1043E00009D03771688ADFF8F88110F4C05F41F6B0
:1043F000641A5ED10CE030790028F3D186F804907D
:10440000BBF802000328EDD2401CABF80200E9E73C
:10441000697C01294DD080067ED5B5F90A1047F692
:104420008373A1F5FC40F5388E280AD8A08B5A1A60
:1044300000EB420000B25246A083904200DC0246EC
:10444000A283481E4F280BD8A08B494200EB4100A5
:1044500000B240F6FC01A083884200DB0146A18344
:10446000B5F90C10A1F5FC40F5388E280ED8B8F837
:104470001C005A1A00EB420000B241F20402A8F8F4
:104480001C00904200DD1046A8F81C00481E4F2872
:1044900077D8B8F81C00494200EB410000B240F662
:1044A000AC51A8F81C00884200DA0846A8F81C00A5
:1044B00067E04C49C00401D50F7301E081F80C900E
:1044C000487B50B3B1F9020000F146028C2A05D8AE
:1044D000B1F9002002F12803502B29D991F90F20BE
:1044E000052A36DB0D46FBF7BAFF9FED3F1B53EC69
:1044F000112BFBF742FFFBF7C3FF3D490988081A60
:10450000A083B5F90000FBF7AAFF9FED3A1B53EC1F
:10451000112BFBF732FF01E028E032E0FBF7B0FFA0
:1045200036490988081AA8F81C00EF73777110E063
:10453000CB7B45305B1CCB738A280AD827324E2AA6
:1045400007D80520C873707918B986F80590ABF8BC
:104550000290B4F91C00504500DD504640F6FC01C5
:10456000A083884200DB0146A1830AE0307801285D
:1045700005D041F2CC00A08340F60A7096E7A4F87B
:104580001CA0144B1E4C1433B3F90010B4F91C00DA
:10459000FCF7CCF8A0831B4CB3F90210B4F91C0053
:1045A000FCF7C4F8A083184CB3F90410B4F91C004C
:1045B000FCF7BCF8A083B3F90610144BB3F91C0048
:1045C000FCF7B4F89883F8E6B4020020F801002064
:1045D0004706002038030020320000203800002069
:1045E0009001002058030020E17A14AE47E1CA3F51
:1045F0008C0000209A9999999999C93F8E000020C2
:10460000C0000020F4000020280100205C010020F0
:1046100070470907090E002806DA00F00F0000F1C4
:10462000E02080F8141D704700F1E02080F80014AD
:10463000704770B50024002104F1B00000F021F9AA
:104640000021084600F01DF90021102000F019F9A2
:1046500000250121002000F014F96D1CEDB2802D21
:10466000F7D3641CE4B2082CE5D370BD484800B50C
:10467000026887B0002142F004020260026802F082
:1046800004020592026842F002020260006800F033
:1046900002000590032000900120CDE901010220D5
:1046A000039069463B48FDF73FFA4FF4167002F05D
:1046B00049F90021AE2000F0E4F80021084600F09E
:1046C000E0F80021102000F0DCF80021402000F08C
:1046D000D8F80021B02000F0D4F80021812000F0AB
:1046E000D0F80021FF2000F0CCF80021A12000F03C
:1046F000C8F80021A62000F0C4F80021A82000F08E
:10470000C0F800213F2000F0BCF80021C82000F0D4
:10471000B8F80021D32000F0B4F80021084600F0DA
:10472000B0F80021D52000F0ACF80021802000F086
:10473000A8F80021D82000F0A4F80021052000F0FE
:10474000A0F80021D92000F09CF80021F12000F011
:1047500098F80021DA2000F094F80021122000F0EF
:1047600090F80021DB2000F08CF80021302000F0D0
:1047700088F800218D2000F084F80021142000F03A
:1047800080F80021AF2000F07CF807B000BD0000E9
:10479000303802400004024010B50A4604460021A9
:1047A00002F1B00000F06DF8102040EA1410002172
:1047B00000F067F804F00F00BDE81040002100F0A1
:1047C00060B800002DE9F041203A00240D468046F3
:1047D000D6B27F2803D900208D1C8046EDB2102B65
:1047E000294610D0FFF7D8FF164906EB460001EB2B
:1047F00040050121285D00F044F8641CE4B2062C59
:10480000F7D3BDE8F081FFF7C7FF0F4F04EB0610A9
:104810000121385C00F035F8641CE4B2082CF5D3B3
:104820006D1CE9B24046FFF7B7FF002404EB061009
:1048300038440121007A00F024F8641CE4B2082C0A
:10484000F4D3DEE7B4740008DC7600082DE9F0410B
:10485000984617460E46044600250DE0434631466D
:104860002046FFF7AFFF0834E4B2782C02D90024C9
:10487000B61CF6B26D1CEDB27A5D002AEED1BDE831
:10488000F081C0B209B101F07ABF01F061BF000050
:104890000148FDF74DBC0000A00B0020F0B541F22F
:1048A00088324049C407C2F1000303D00A804B801C
:1048B0008B80CA80840703D50B804A808A80CB8096
:1048C000394B440740F6B83203D50B804B808A80C1
:1048D000CA80040703D50A804A808B80CB804206B9
:1048E00004D5324A0A804A808A80CA80C20505D52A
:1048F0004FF4FA620A804A808A80CA802C4C2D4A82
:1049000087054FF0FF0C4FF0FE0E4FF00106A4F1AB
:1049100004034FF0000515D55778A7B956701F68E6
:104920007F06FCD5C4F800C01F687F06FCD5256053
:104930001F687F06FCD525601F687F06FCD5C4F87C
:1049400000E000E05570400415D59078A0B996704D
:1049500018684006FCD5C4F800C018684006FCD5AD
:10496000256018684006FCD5266018684006FCD50E
:10497000C4F800E000E095700A481438438A9C04AB
:1049800004D5D4781CB9D670167000E0D570002B11
:1049900006D14089002803D10D804D808D80CD80C7
:1049A000F0BD00004C03002048F4FFFF30F8FFFF8B
:1049B00004140140380000202DE9F84F0F46C1EBE8
:1049C000C70100EB810582460668D5E91301441A48
:1049D000286C3835A04200D20446E01C4FEA90080B
:1049E00006EB471916E0441AA868A04200D2044614
:1049F000E01C4FEA90089AF810000090A3B2FAB2B7
:104A00003046E96801F006FEE8682044E860A869DD
:104A10002044A861D9F8180980B2404505D9D5E9E4
:104A20000501814201D20028DDD134B90120D6F838
:104A30003418B8408143C6F834180020BDE8F88F18
:104A400070B504462DED068BB7EE001AB0F91C00C8
:104A5000451A00EE105AB8EEC09ABDEEC98A18EE9B
:104A6000100A002800DA40424FF49671884218DAA2
:104A700018EE100A002800DA404290FBF1F0FBF734
:104A8000EEFC9FED491B53EC112BFBF776FC9FEDE1
:104A9000481B53EC112BFBF7C9FBFBF753FD01EE51
:104AA000100A00EE905A94ED090A18EE100AF8EE7A
:104AB000E00A84ED080A0028C4ED090A30EEC00AB5
:104AC00084ED0A0A00DA4042B4F91A1094ED0B0A98
:104AD000884203DA30EE090A84ED0B0AD4ED0C0AA1
:104AE000B4EEE00AF1EE10FA01DDB0EE600AF1EE8C
:104AF000600A9FED318B9FED32ABB4EEE00A84ED9E
:104B00000B0AF1EE10FA01D2B0EE600A84ED0B0A46
:104B1000D4ED000A60EE810A60EE890AC4ED030A52
:104B200094ED011A21EE000A84ED040A94ED021AB4
:104B300030EE800A21EE291A84ED051A30EE010AC2
:104B400010EE100AFBF7BBFC41EC190B53EC182BD1
:104B5000FBF7E0FC03D3B0EE498AF0EE698AB0EED1
:104B6000489AF0EE689AB0EE4A8AF0EE6A8A53EC00
:104B7000182B51EC190BFBF7B5FC03D3B0EE498AA7
:104B8000F0EE698A51EC180BFBF77AFCB4F91E10B1
:104B900000B2814200DA08464942814200DD0846FF
:104BA000BDEC068B00B270BD333333333333D33FA8
:104BB000666666666666E63F00000000004CDD4003
:104BC00000000000004CDDC01648DFED170AB1EE12
:104BD0000C0AB1EE041A80EC030AC821418340F6A6
:104BE0002822DFED121A124BC283C0ED0C1A1B886B
:104BF0008383343080EC030A4183C283C0ED0C1AF6
:104C00008383343080EC030A4183C283C0ED0C1AE5
:104C10008383343080EC030A4183C283C0ED0C1AD5
:104C200083837047C00000209A99993E00409C46BB
:104C30001C000020704700001648B3EE040A322121
:104C400080ED000A9FED140ADFED150A80ED010AE0
:104C50009FED120A80ED020A4183C0ED0C0A40F676
:104C6000B831C18340F60A718183DFED0E0A34301A
:104C70006421C0ED000A80ED010AB1EE0C0A80ED5E
:104C8000020A41834FF47A619FED070AC18380EDE8
:104C90000C0A704790010020CDCC4C3E0000000073
:104CA00000401C45CDCC2C400000FA4408480021AF
:104CB0005122017042708180C180C1709FED050A50
:104CC0004FF4C87180ED030A80ED040A018170473A
:104CD00024030020000000000E490020B2EE000A6C
:104CE0000870087148800C48642180ED000A9FED2F
:104CF0000B0A80ED010A80ED020A41839FED080A4C
:104D000040F6C41180ED0C0AC1834FF4FA6181832F
:104D10007047000032000020F00200200000000078
:104D200000803B4510B54FF47A70014600F0ECFA74
:104D3000BDE810404FF4C87001F004BE38B50B4612
:104D4000009204460022802100F008F8002804D0D8
:104D5000606D40F020006065032038BD2DE9F04112
:104D60001D4617460E460446DDF8188035E0681CDF
:104D700033D02DB1FCF7C8FFA0EB0800A8422CD31C
:104D80002068416821F0E00141606068B0F5827FF1
:104D90000BD1A068B0F5004F02D0B0F5806F04D100
:104DA0002068016821F040010160A06AB0F5005F51
:104DB0000AD1206801684DF6FF7211400160206839
:104DC000016841F400510160012084F85100002085
:104DD00084F850000320BDE8F0812068806836EA3E
:104DE000000004D00020B842C1D10020F3E7012028
:104DF000F9E77047084800216FF0F902418001800F
:104E0000C280FA2282806FF0B3024281E6220281E0
:104E100001730221C17370475803002010B50021AF
:104E2000425CFF2A03D14218D279FE2A04D0491CE1
:104E3000C9B20829F4D310BD014441F27074487816
:104E40008A780B7900EB022002B2C87800EB0320CD
:104E500003B202F6B830A042EDD860108342EADA1D
:104E6000C342E8DB0D484C79447389798173017B37
:104E700071B1418911444180018919440180C17B8C
:104E8000491C49B2C1736429D5DB1521C17310BD1A
:104E9000C188114441808188EFE700005803002059
:104EA00010B500B2FBF774FF09480A4C807801285E
:104EB00007D0FBF769FD20880749020A0A7148718B
:104EC00010BD4FF6A8502080FFF7F0FEF3E700007A
:104ED00024030020300000207200002010B50022C2
:104EE00090F828401346022C02D1002480F8284074
:104EF00090F9284020F8141090F82810491C80F8E8
:104F0000281000BF30F91210521CD2B20B44022AF2
:104F1000F8D303EBD37040F34F0010BD05489FED6D
:104F2000060A417841F00101417080ED030A002139
:104F300001707047240300200000000010B5FCF74A
:104F400019FFBDE81040FDF7D2BF000030B525487D
:104F500093B00025016841F080510160006800F0C5
:104F6000805011902048016841F440410160006880
:104F7000022400F44040119001200090019080052F
:104F8000CDE906400C2008904FF4A870CDE9090443
:104F900007200B906846FDF7C5FC00B1FEE70CA9A1
:104FA0000F2081E831004FF4A0500F904FF4805053
:104FB000109005210CA8FDF787FB00B1FEE7FDF777
:104FC00041FC4FF47A71B0FBF1F0FDF77CFF042057
:104FD000FDF76CFF00221146501EFCF77FFF13B057
:104FE00030BD0000403802400070004010480168A9
:104FF00041F4700101600F48016841F00101016056
:105000000C4A00210832116002680B4B1A40026002
:10501000031D0A4A1A60026822F4802202600548D1
:105020000C30016002495806803908607047000062
:1050300088ED00E000380240FFFFF6FE103000244B
:1050400010B501F007FEBDE810400148FEF7B8B802
:10505000B808002070B50F4C6068B0F5FA7F0ADB25
:105060000D4822684FF48041002562B10022FCF710
:1050700046FE256065606068401C6060BDE8704069
:105080000648FEF79DB80122FCF739FE012020609A
:10509000F0E700001400002000140240F408002093
:1050A000F0B50268234B244D244E254F254C4FF07C
:1050B000804C984209D0604507D0A84205D0B04244
:1050C00003D0B84201D0A04204D122F0700E4A6849
:1050D00042EA0E0298421BD0604519D0A84217D070
:1050E000B04215D0B84213D0A04211D0164DA842FC
:1050F0000ED0164DA8420BD0154DA84208D0154D24
:10510000A84205D0144DA84202D0144DA84203D1A4
:1051100022F44075CA682A4302608A68C2620A683B
:105120008262984201D0A04201D109690163012144
:105130004161F0BD00000140000400400008004053
:10514000000C0040000401400040014000440140C8
:105150000048014000180040001C004000200040B2
:1051600010B50123046A8B409C430462036A8A40A1
:105170001343036210BD10B5846842EA032224F48D
:105180007F440A432243826010BD826822F070028D
:105190000A4342F0070181607047000030B5026A9F
:1051A00022F001020262026A436884690D6824F0F9
:1051B0007304254322F002048A6822430B4CA04268
:1051C00002D00B4CA0420BD122F00804CA6823F491
:1051D000407322434C6922F004021C438B69234331
:1051E0004360856149684163026230BD000001404F
:1051F0000004014030B5026A22F010020262026A25
:10520000436884690D6824F4E64444EA05248D6803
:1052100022F0200242EA05120D4DA84202D00D4DA7
:10522000A8420ED1CD6822F0800242EA05124D69F3
:1052300023F4406343EA85038D6922F0400243EA88
:1052400085034360846149688163026230BD000068
:10525000000001400004014030B5026A22F480726F
:105260000262036A4268C46923F4007324F0730580
:105270000C682C438D6843EA05230D4DA84202D0EB
:105280000C4DA8420ED1CD6823F4006343EA0523F8
:105290004D6922F4405242EA05128D6923F480637D
:1052A00042EA05124260C4614968C163036230BDCD
:1052B000000001400004014030B5026A22F480522F
:1052C0000262046A4268C3690D6823F4E64343EA54
:1052D00005238D6824F4005444EA0534084DA8429F
:1052E00002D0084DA84204D14D6922F4804242EA1E
:1052F00085124260C36149680164046230BD0000E8
:105300000000014000040140024A1060101D0160CD
:10531000704700003418004010B5036A046A24F096
:1053200001040462846924F0F00444EA021423F0C6
:105330000A020A438461026210BD10B5036A23F0B9
:10534000100303628369046A23F4704343EA023260
:1053500024F0A00343EA01118261016210BD000044
:10536000F0B50522444C454982434FF4FA6303D11A
:105370000B804C808C80CB800926414A864341F2C9
:10538000941503D10D804A808A80CD80C0F34106F8
:10539000032E03D10A804D808D80CA800A2232EA12
:1053A000000503D10C804B808B80CC80C3061AD5BE
:1053B000324B143B5B8A9C0716D0324B2F4A00209D
:1053C000D3F1000432F91010994202DAA1F57A7192
:1053D00003E0A14203DD01F57A7122F81010401CB0
:1053E000C0B20428EED3F0BD13F00C0F38D0264E17
:1053F000264D274C274BB6F91C60B5F91C50B4F963
:105400001C40B3F91C30470713D596FBF2F0A0F50A
:10541000FA60088095FBF2F0A0F5FA60488094FBF2
:10542000F2F0A0F5FA60888093FBF2F0A0F5FA6044
:1054300014E00007D7D596FBF2F000F5FA6008807B
:1054400095FBF2F000F5FA60488094FBF2F000F56D
:10545000FA60888093FBF2F000F5FA60C880F0BD36
:1054600082044FF0000002D50B490870F0BD08809F
:1054700048808880F2E700006CEEFFFF4C030020BC
:1054800030F8FFFF24FAFFFFC0000020F4000020E6
:10549000280100205C0100203800002010B5806B3E
:1054A0000021C185C184FEF781F810BD70B5846B01
:1054B0002068406994F83910C0F3C01000252129F4
:1054C00004D118B1E584204600F046F82068406910
:1054D00094F83A10C0F38010222904D118B1E58560
:1054E000204600F02BF8E06B40F01000E06320460F
:1054F000FEF75CF870BD10B50146806B096809685D
:10550000C90513D40021C1850168CA6822F48072DC
:10551000CA6001684A6922F001024A6101684A6969
:1055200022F040024A61202180F83A10FEF712FA78
:1055300010BD10B5806BFEF75DFA10BD0168CA683A
:1055400022F49072CA6001684A6922F001024A613D
:10555000202180F83A1070470168CA6822F0C00222
:10556000CA60202180F83910704710B590F83A10C1
:10557000222901D0022010BD8168B1F5805F11D0D1
:105580000169002901681FD0496801F07F03816A21
:105590004A1C82620B70C18D491E0904090CC18529
:1055A00018D026E00269816A002A0268526805D094
:1055B000D2B20A80816A491C8162ECE7C2F3080218
:1055C0000A80816A891CF7E74A68816A4B1C8362FA
:1055D0000A70E0E70168CA6822F49072CA60016844
:1055E0004A6922F001024A61202180F83A10FEF750
:1055F000B1F9002010BD000003490A685206FCD52D
:105600000149091D08607047004800402DE9F0413C
:1056100004460068016921F44052E16811430161C8
:105620002168C86849F20C6290432369A268E56961
:105630001A4363692B431A430243CA6021684869CD
:1056400020F44072A06910434861E1696425B1F516
:10565000004F9748974A21684FF032083FD0914257
:1056600001D081427CD1FDF70BF900EBC00101EBC9
:10567000001061688900B0FBF1F6FDF701F900EB5D
:10568000C00101EB001061688900B0FBF1F0B0FBD4
:10569000F5F06FF01801484306EB800108EB0110AC
:1056A000B0FBF5F000F0F006FDF7EAF800EBC00102
:1056B00001EB001061688900B0FBF1F0B0FBF5F080
:1056C00006EB0016FDF7DCF800EBC00101EB001063
:1056D00061688900B0FBF1F7FDF7D2F8D2E09142A2
:1056E00001D081423DD1FDF7CBF800EBC00101EBC9
:1056F000001061684900B0FBF1F0B0FBF5F0060165
:10570000FDF7BEF800EBC00101EB00106168490035
:10571000B0FBF1F7FDF7B4F800EBC00101EB0010AE
:1057200061684900B0FBF1F0B0FBF5F06FF01801D3
:10573000484307EB800108EBC100B0FBF5F000F037
:10574000F80006EB4006FDF79BF800EBC00101EB0B
:10575000001061684900B0FBF1F7FDF791F83CE0FB
:1057600055E0FDF775F800EBC00101EB0010616832
:105770004900B0FBF1F0B0FBF5F00601FDF768F869
:1057800000EBC00101EB001061684900B0FBF1F7CC
:10579000FDF75EF800EBC00101EB00106168490005
:1057A000B0FBF1F0B0FBF5F06FF01801484307EBE8
:1057B000800108EBC100B0FBF5F000F0F80006EB4B
:1057C0004006FDF745F800EBC00101EB00106168F1
:1057D0004900B0FBF1F7FDF73BF800EBC00101EB2E
:1057E000001061684900B0FBF1F0B0FBF5F06FF01C
:1057F0001801484307EB800108EBC100B0FBF5F04E
:1058000000F00700216830448860BDE8F081FDF7B2
:105810001FF800EBC00101EB001061688900B0FBCC
:10582000F1F6FDF715F800EBC00101EB001061681F
:105830008900B0FBF1F0B0FBF5F06FF018014843C0
:1058400006EB800108EB0110B0FBF5F000F0F0066C
:10585000FCF7FEFF00EBC00101EB0010616889005E
:10586000B0FBF1F0B0FBF5F006EB0016FCF7F0FF33
:1058700000EBC00101EB001061688900B0FBF1F79B
:10588000FCF7E6FF00EBC00101EB00106168890046
:10589000B0FBF1F0B0FBF5F06FF01801484307EBF7
:1058A000800108EB0110B0FBF5F000F00F00A9E754
:1058B000001401400010014090F83910212901D056
:1058C000022070478168B1F5805F016A0BD04A1CE5
:1058D0000262026809785160C18C491E0904090CF2
:1058E000C1840ED017E009880268C1F30801516035
:1058F00001690029016A02D0491C0162ECE7891C98
:10590000FBE70168CA6822F08002CA600068C168CB
:1059100041F04001C1600020704700000148FDF7E0
:1059200047BE0000800A0020044800680068C006E6
:1059300002D5024801F0C4BA70470000E00600201A
:105940000148FDF735BE0000C00A00200448006889
:105950000068C043800602D40148FDF729BE7047A5
:10596000000B002010B5D0F8142252689047002098
:1059700010BD134610B50A46002100F064F900205E
:1059800010BD134610B50A46002100F0DBF90020D7
:1059900010BD10B50446802100F0C4F92046BDE8D2
:1059A0001040002100F0BEB910B505210023C0F859
:1059B000F4111A46194600F046F9002010BD10B542
:1059C00002238261C0F8F431C26113460A46002105
:1059D00000F0B8F9002010BD10B504210023C0F874
:1059E000F4111A46194600F0ADF9002010BDF8B5C3
:1059F000044648880D46010A08294BD2DFE801F029
:105A00004A0409174A4A4048D4F81012207C0A6810
:105A100032E0207C02260028D4F8140205D0C16AA6
:105A2000684688470146467041E0816AF8E7C0B29F
:105A300006282FD2DFE800F003080D12171CD4F857
:105A40001012207C4A6817E0D4F81012207C8A6873
:105A500012E0D4F81012207CCA680DE0D4F81012BD
:105A6000207C0A6908E0D4F81012207C4A6903E01F
:105A7000D4F81012207C8A6969469047014616E0E6
:105A8000207C38B9D4F81402416B68468847F5E7A2
:105A9000207C20B129462046FFF77BFFF8BDD4F8D3
:105AA0001402016B68468847014607204870BDF81C
:105AB00000000028F2D0EA88002AEFD0824200D904
:105AC0000246ADF800202046FFF779FFF8BD10B57B
:105AD000D0F82002FCF74FFA002010BD2DE9F0416C
