:020000040800F2
:10000000C0110020C1010008FD3900082934000892
:10001000B5380008B7080008315500080000000096
:10002000000000000000000000000000013F000888
:10003000D90D000800000000B13E00089D3F0008F7
:10004000DB010008DB010008DB010008DB01000820
:10005000DB010008DB010008DB010008DB0D000804
:10006000DB010008DB010008DB010008DB01000800
:10007000DB010008DB010008DB010008DB010008F0
:10008000DB010008DB010008DB010008C5080008EF
:10009000B9080008DB010008DB010008DB010008EB
:1000A000DB010008DB010008DB010008DB010008C0
:1000B000DB010008DB010008DB010008DB010008B0
:1000C000DB010008DB010008DB010008DB010008A0
:1000D000DB010008114800081D48000835480008E9
:1000E000DB010008DB010008DB010008DB01000880
:1000F000DB010008DB010008DB010008DB01000870
:10010000DB010008DB010008DB010008DB0100085F
:10011000DB010008DB01000899400008AD40000841
:10012000DB010008DB010008290D0008DB010008E5
:10013000DB010008DB010008DB010008DD08000826
:10014000D1080008DB010008DB0100087D3C000845
:10015000DB010008DB010008DB0100084148000862
:10016000DB010008DB010008DB010008DB010008FF
:10017000DB010008DB010008DB01000800000000D3
:10018000DB010008DB010008DB010008DB010008DF
:10019000DB010008DB010008DB010008DB010008CF
:1001A0000000000000000000DB010008DFF80CD0B8
:1001B00000F060FB00480047D5600008C011002037
:1001C0000648804706480047FEE7FEE7FEE7FEE7F1
:1001D000FEE7FEE7FEE7FEE7FEE7FEE74540000834
:1001E000AD01000840EA01039B0703D009E008C9FC
:1001F000121F08C0042AFAD203E011F8013B00F8EC
:10020000013B521EF9D27047D2B201E000F8012B37
:10021000491EFBD270470022F6E710B513460A4686
:1002200004461946FFF7F0FF204610BD2DE9FE4FAA
:10023000804681EA0300C00F0C46009021F0004187
:1002400023F00045B8EB0200A94105D24046214603
:1002500090461C460B46024623F00040104347D010
:10026000270DC7F30A00C3F30A510290401A019008
:1002700040286BDAC3F3130040F4801B00989246C9
:1002800020B10023D2EB030A63EB0B0B0198594614
:10029000C0F14002504600F0F7F906460D465046C0
:1002A0005946019A00F00FFA10EB08006141002452
:1002B00087EA115284EAE7731A4340D0009A62B386
:1002C000019A012A4FEA075215DC001B61EB02017B
:1002D0004FF0004202EA0752CDE90042001C41F50E
:1002E000801132462B4600F046FA03B0BDE8F08F8D
:1002F00040462146F9E7001B61EB0201001C41F575
:10030000801300185B412018A2F5001747EB03018A
:1003100040EAD570B6196D4111E06D084FEA360616
:1003200045EAC0754FEA0752001B61EB0201001C51
:1003300041F5801149084FEA300000195141324619
:100340002B4603B0BDE8F04F00F006BA009801223A
:1003500040000023D0EB020263EBE07300982146DB
:100360004FEAE074B8EB000061EB0401E9E783F0C9
:1003700000435BE781F0004158E72DE9FE4F81EA39
:10038000030404F0004421F0004100944FF0000BFE
:1003900023F0004350EA01045ED052EA03045BD02C
:1003A000C3F30A54C1F30A552C44A4F2F334019464
:1003B000A0FB0254C1F3130141F48011C3F31303F2
:1003C00043F4801301FB024400FB034E840A970AA6
:1003D00044EA815447EA8357A4FB076802958D0AD3
:1003E00005FB07854FEA932C04FB0C542705029D5F
:1003F0004FEA065847EA1637B5EB08056EEB070CCF
:10040000870E920E47EA811742EA8312A7FB020188
:10041000B6EB0B0164EB00042B0D43EA0C335E18C2
:1004200044EB1C50DA465146E7FB0201C5F31304C6
:100430004FEA0B3343EA14534FEA0432019C43EA78
:100440000603A4F10C040294009CCDE900B400F072
:1004500092F903B0BDE8F08F00200146F9E72DE9DD
:10046000F04D81EA030404F0004B21F000451446EE
:100470004FF0000A23F0004150EA050220D054EA70
:1004800001021DD0C5F30A570246C5F31303C1F399
:100490001300C1F30A5640F4801543F48013A7EB10
:1004A0000608101BD64608F2FD3873EB050002D390
:1004B00008F1010801E092185B41B8F1000F03DA7E
:1004C00000200146BDE8F08D00204FF48011064663
:1004D00084460EE0171B73EB050705D3121B63EB75
:1004E000050306434CEA010C49084FEA3000921814
:1004F0005B4150EA0107EDD152EA030012D082EAD3
:10050000040083EA0501084305D0101BAB4106D265
:100510000122002306E000224FF0004302E06FF0CA
:10052000010253101AEB06004CEB085110EB0A00C5
:1005300041EB0B01BDE8F04D00F00EB90EB5C10F57
:1005400080EAE0700844CA07002140F233438DE896
:100550000E000A460B4600F00EF903B000BD70B560
:10056000C1F30A5201F000450024C1F3130140F227
:10057000FF3341F480119A4201DA002070BD40F24D
:1005800033439A42A2F2334203DC524200F08BF82A
:1005900000E090402C43F1D0404270BD00F000429A
:1005A00030F000400AD0C10D01F56071C0F31600B3
:1005B00042EA0151C208400711437047002001463A
:1005C000704701F0004330B421F0004150EA0102CD
:1005D00006D00A0DA2F56072C1F31301002A02DCF5
:1005E00030BC00207047440F44EAC104C100E01849
:1005F00030BC00EBC25000F078B830B50B46014675
:1006000000202022012409E021FA02F59D4205D3B1
:1006100003FA02F5491B04FA02F52844151EA2F15B
:100620000102F1DC30BD2DE9F05F05460020924665
:100630009B4688460646814640241BE028464146A4
:100640004746224600F02FF853465A46C01A9141B9
:1006500010D311461846224600F016F82D1A67EB03
:1006600001084F4622460120002100F00DF817EB4B
:1006700000094E41201EA4F10104DFDC484631464A
:100680002A464346BDE8F09F202A04DB203A00FAC0
:1006900002F1002070479140C2F1200320FA03F3D9
:1006A000194390407047202A04DB203A21FA02F0D7
:1006B0000021704721FA02F3D040C2F1200291409C
:1006C000084319467047202A06DBCB17203A41FA27
:1006D00002F043EAE07306E041FA02F3D040C2F1CF
:1006E000200291400843194670470029A8BF70476F
:1006F000401C490008BF20F00100704710B4B0FA58
:1007000080FC00FA0CF050EA010404BF10BC7047F2
:1007100049B1CCF1200421FA04F411FA0CF118BF0C
:10072000012121430843A3EB0C01CB1D4FEA0061DB
:100730004FEA102042BF002010BC704700EBC350AE
:1007400010440029A4BF10BC7047401C490008BFDA
:1007500020F0010010BC704710B5141E73F10004A6
:1007600008DA401C41F1000192185B411A4301D1A3
:1007700020F0010010BD2DE9F04D92469B4611B1CD
:10078000B1FA81F202E0B0FA80F220329046FFF72F
:100790007BFF04460F4640EA0A0041EA0B0153463C
:1007A0005A46084313D0114653EA010019D0C8F144
:1007B00040025046FFF777FF05460E465046594621
:1007C0004246FFF761FF084305D0012004E02046C0
:1007D0003946BDE8F08D0020054346EAE0762C431B
:1007E00037430A986305E40AA0EB08000022FD0ADB
:1007F00044EA47540A3002D500200146E9E70105E2
:1008000010196941DDE9084500196941BDE8F04D5D
:10081000A2E7C1F30A52C1F3130140F2FF3341F4DE
:1008200080119A4202DA00200146704740F23343B9
:100830009A42A2F2334202DC5242FFF734BFFFF782
:1008400023BF000030B5041E71F1000404DB4FF03B
:100850000044404264EB0101141E73F1000405DB07
:100860001C464FF00043524263EB0403994208BF19
:10087000904230BD064C074D06E0E06840F00103B1
:1008800094E8070098471034AC42F6D3FFF792FC87
:100890009C710008BC710008421A02F5FA62B2F5B8
:1008A0007A6F06D9884201DA963000E0963800B2B5
:1008B000704708467047FEE7014800F007BB00009C
:1008C00064080020014800F001BB0000640800201B
:1008D000014800F0FBBA0000A4080020014800F025
:1008E000F5BA0000A408002010B54FF4D8720368D0
:1008F00002EB01129B5813F00404436B9C600468E4
:10090000436BA45856D0E4085C6003689A58436B64
:1009100002F00202DA604FF4DA72036802EB0112AD
:100920009B58446B03F00F032361436B1962036808
:100930009A58436BC2F30722DA614FF4DC72036802
:1009400002EB01129B58446B237503689B58446B60
:100950001B0A637503689B58446B1B0CA3750368E3
:100960009A58436B120EDA754FF4DE72036802EB8D
:1009700001129B58446B237603689B58446B1B0AF7
:10098000637603689B58446B1B0CA37603689A58E4
:10099000436B120EDA762022002901680DD00A611D
:1009A00001684A6922F010024A6190F83810222941
:1009B00009D021E0640D1C60A7E7CA6001684A699C
:1009C00022F00202F0E701684A6922F480724A616B
:1009D00001684A6922F400724A6101684A6922F496
:1009E00080624A6101684A6922F400624A610168D2
:1009F0004A6922F400424A6190F83810322907D03F
:100A00005FF0010180F8381000F078FC002010BD84
:100A10001221F7E7F0B4056B00242A60056BAC6087
:100A2000056BEC60026B136106E00D5D04F11402CE
:100A3000066B641CE4B2B5549C42F6D3F0BC00F0E3
:100A4000BFBC10B501684A6922F001024A6190F802
:100A50003810122918D101684A6922F480724A615B
:100A600001684A6922F400724A6101684A6922F405
:100A700080624A6101684A6922F400624A61016841
:100A80004A6922F400424A6190F83810322906D0AF
:100A9000012180F8381000F036FD002010BD222121
:100AA000F7E7000000B58BB000210122CDE9061266
:100AB000039108920E220D4B049100910191029135
:100AC0000992984204D10591094901631C3141639F
:100AD0000849884205D106490592403101631C311D
:100AE0004163694600F07EF90BB000BD6408002048
:100AF00004060020A4080020214810B5B0F9001019
:100B0000204803F005F9204C60802048B0F900101F
:100B10001C48343003F0FCF8A0801D48B0F90010E8
:100B20001848683003F0F4F8E0801A48B0F9001073
:100B300014489C3003F0ECF8208162881649130AAF
:100B40000B704A70A288130A8B70CA70E288130A6D
:100B50000B714A71020A8A71C871104800780C281A
:100B600006D3002002460A54401CC0B20828FAD31B
:100B70000823BDE810409A0107490948FFF74ABF1A
:100B80006A00002094000020140000206C00002067
:100B9000700000206E00002057000020020000209E
:100BA00064080020104810B5008801B20F4803F017
:100BB000AFF80F4CA0810F48008801B20B483438C1
:100BC00003F0A6F804F10E016081020A0A7148716F
:100BD000A089020A0A704870BDE81040082340F25C
:100BE000FF120548FFF716BF720000209801002091
:100BF000140000206000002064080020F0B5394C8B
:100C0000394D21881035C804A0F10050031436482E
:100C1000A1F58061C1EB413103804380CA0082802D
:100C2000C2806188C804A0F1005006142E48A1F5C6
:100C300080610830C1EB41310680C900418081806C
:100C4000C680A088A0F5806000EB400040002880AE
:100C50006880A880E880E4880835A4F58064C4EB47
:100C60004434E4002C806C80AC80EC809D192044DE
:100C70000B442C1811440344014425B21B4C1FB2F1
:100C800032441B4B0FFA81FC10441A49A58306B26B
:100C9000194A9F83A1F81CC040F6B830968385425C
:100CA00009DD874207DD844505DD864203DDA0833B
:100CB000988388839083B4F91C50104885420FDADA
:100CC000B3F91C5085420BDAB1F91C50854207DAA2
:100CD000B2F91C50854203DAA083988388839083FD
:100CE000F0BD0000CC010020300000209400002066
:100CF000C8000020FC0000203001002048F4FFFF65
:100D000008484FF48061018041808180C1800021CA
:100D10000172417241818181C181017441744182BA
:100D200070470000CC010020014800F047BC0000E3
:100D3000A409002001681823CAB2103AB2FBF3F2EA
:100D4000054B6FF30901032A9B5CC36500D9091D9C
:100D500081650846704700009471000810B501468F
:100D600000208B698A6A4FF0C07453B1B3F5005FFD
:100D700015D072B1012A0CD0022A0AD0032A09D157
:100D800004E01AB1012A06D0022A03D1C96AC901B6
:100D900000D5012010BDC96AA142FAD010BD002AB9
:100DA000F7D0012AF2D0022AF3D0032AF3D010BDE3
:100DB00030B50468256825F48025256004686360E3
:100DC0008368402B036803D099600068C26030BD1F
:100DD0009A600068C16030BD7047022000F068BDB5
:100DE000FEE70000F0B50A7D01209040344A136808
:100DF00043F001031360136823F47C5313601368FA
:100E00004C6A43EA042313602D4B1C331C68844353
:100E10001C602B4D2B4CCE690C35A6B92E68864331
:100E20002E608F894E6867F31F464F6904EBC70732
:100E3000C7F840660F890E6867F31F464F6904EBD9
:100E4000C707C7F84466CE69012E14D12E68064341
:100E50002E600E884D6866F31F454E6904EBC6068A
:100E6000C6F840560E89CD6866F31F454E6904EBFF
:100E7000C604C4F84456124C8D69241D002D256803
:100E800006D0054325600E4C0D69143415B104E0FD
:100E90008543F7E72568854325600D69012D02D15B
:100EA000256805432560096A012902D119680143B3
:100EB0001960106820F0010010600020F0BD0000F3
:100EC00000660040006000407047000010B5044616
:100ED00000684169C943C90714D1826858499143E0
:100EE00068D000218368574A9A4365D000228368FE
:100EF0005548984362D000201143014302D0204658
:100F0000FFF79FFD2068C168406911F0030FC0F32F
:100F1000400004D018B100212046FFF7E5FC21680D
:100F20000869496910F0030FC1F3001104D019B129
:100F300001212046FFF7D8FC20688169426911F041
:100F4000010FC2F300234269C2F3C03205D023B1BE
:100F50001AB1E16B41F00101E1638169C1F3400322
:100F600041694269C1F34021C2F3C0322BB121B1C2
:100F70001AB1E16B41F00201E16381694269C1F399
:100F80008001C2F380234269C2F3C03229B123B188
:100F90001AB1E16B41F00401E163816911F0700F56
:100FA0000ED0002142694369C2F3C022C3F3C033AB
:100FB00041B127E0012195E7012298E701209BE755
:100FC0000121EFE7F2B1EBB1816901F07001402935
:100FD00029D006DC102909D020290BD030290DD1C9
:100FE0001DE0502923D0602908D124E0E16B41F0B5
:100FF000080102E0E16B41F01001E163816921F039
:1010000070018161E06B002808D0216804204860ED
:10101000012084F838002046FFF756FF10BDE16B31
:1010200041F02001E9E7E16B41F04001E5E7E16BC8
:1010300041F08001E1E7E16B41F48071DDE7000000
:101040000300000400030008000003102DE9F04134
:10105000040004D094F83800002518B107E00120FE
:10106000BDE8F08184F83950204600F093F8022062
:1010700084F838002068016821F0020101602068CE
:10108000016841F00101016000F00EFD07460326F2
:1010900005E000BF00F008FDC01B0A2863D82068E7
:1010A0004068C007F6D020684168C90768D0A169C8
:1010B000012901683FD021F080010160E069012829
:1010C000206801683AD021F040010160206A0128BF
:1010D0002068016835D021F020010160606A012894
:1010E0002068016830D021F010010160A06A012859
:1010F000206801682BD021F008010160E06A012816
:101100002068016826D021F004010160D4E90201C1
:101110000843D4E90412114308436168491E084397
:101120002168C8612068016821F00101016000F0B8
:10113000BBFC07461CE041F08001BEE741F04001E6
:10114000C3E741F02001C8E741F01001CDE741F0CD
:101150000801D2E741F00401D7E700BF00F0A4FC8A
:10116000C01B0A2804D904F8386F0320657077E79C
:1011700020684068C007F1D120684068C00703D0EC
:10118000042084F838006AE7E563012084F8380019
:10119000002065E7F0B5324B0768DFF8C0C018687B
:1011A0000322022409252F490026401C87B06745E9
:1011B00021D11860012807D1086840F0007008604C
:1011C000086800F0007005908DE85400CDE9032513
:1011D0006946254800F078FB01221146132000F0F3
:1011E0001DFD132000F00FFD01221146142000F018
:1011F00015FD14202EE0DFF874C067452CD10F6870
:1012000047F080670F600F68012807F08067059737
:10121000186007D1086840F000700860086800F0A6
:10122000007005904FF440508DE85100CDE9032542
:1012300069460F4800F048FB012211463F2000F0AC
:10124000EDFC3F2000F0DFFC01221146402000F0C1
:10125000E5FC402000F0D7FC07B0F0BD0064004082
:101260008400002040380240000C0240006800402A
:101270000004024010B590F83820012A01D0122A4B
:1012800039D190F83920012A35D0012280F839204F
:1012900090F83820122A29D05FF0220280F83820F6
:1012A0000022C26303685C6944F480745C61036873
:1012B0005C6944F400745C6103685C6944F48064B4
:1012C0005C6103685C6944F400645C6103685C69A8
:1012D00044F400445C6180F83920006800294169C9
:1012E00006D041F010014161002010BD3222D5E747
:1012F00041F00201F7E7022010BD000010B5416B7C
:101300002C480A7D02704A7D42708A7D8270CA7DB7
:10131000C2700A68A0F11801A2F20123072B2ED295
:10132000DFE803F0040B1219202D270003885BBAB5
:101330004B80408840BA488121E003885BBA8B80AB
:10134000408840BA88811AE003885BBACB80408825
:1013500040BA088213E003885BBA0B81408840BA28
:10136000C8810CE003885BBACB82408840BA4882CF
:1013700005E003885BBA8B82408840BA0880A2F5FA
:101380000072013A05D0012A03D0022A01D0032AB3
:1013900009D1094C2078012805D1FFF7ADFBFFF7F3
:1013A00001FC00202070BDE8104000210348FFF739
:1013B00061BF0000780000200000002064080020C9
:1013C00070B503689968490105D49968090102D488
:1013D0009968C9007ED590F83910012907D00121FC
:1013E00080F839109968490103D5002207E00220EE
:1013F00070BD9968090101D5012200E002224FF475
:10140000C07101EB02115C5804F001045C50036BE5
:101410009C68002C67D0066875582543DC685B68BB
:1014200044EAC3031D437550036B1C7C04F00F0496
:101430001C614FF4C273046803EB0213E55825F0F6
:101440000F05E5500468E558066B36693543E550ED
:10145000036B4FF4C47505EB02151C7DD3F81530F2
:1014600044EA032304686351036B4FF4C67505EB2C
:1014700002121C7ED3F8193044EA03230468A350F7
:1014800090F83820222A37D05FF0120280F83820F6
:101490000022C26380F839200268536943F48073E4
:1014A00053610268536943F40073536102685369DE
:1014B00043F4806353610268536943F400635361EA
:1014C0000268536943F4004353610268536943F06F
:1014D000010300E012E053610068425842F001024B
:1014E0004250002070BD04686558DE681B88354393
:1014F00045EA4353635097E73222C7E7042180F857
:101500003810012070BD70472DE9F0410446876D09
:1015100000F0CAFA064694F835000025022806D0E5
:101520008020606584F834500120BDE8F081206897
:10153000016821F0160101602068416921F08001F5
:101540004161206C08B9A06C20B12068016821F0CD
:10155000080101602068016821F0010101600BE0D1
:1015600000F0A2FA801B052806D92020606504F847
:10157000345F03206070D8E720680068C007EFD1AF
:1015800094F85C103F208840B86004F8345F012074
:1015900060700020C9E790F83510022903D080213F
:1015A000416501207047052180F835100068016809
:1015B00021F0010101600020704700002DE9F8438F
:1015C00004464FF00008CDF8008064484FF41651EF
:1015D000A56D0068B0FBF1F72E6894F85C10082048
:1015E00000FA01F131420FD021680A6852070BD589
:1015F0000A6822F004020A6094F85C108840A8602F
:10160000606D40F00100606594F85C1054488840BB
:10161000304208D021684969090604D5A860606D88
:1016200040F0020060654E4894F85C10C01C884091
:10163000304208D021680968890704D5A860606D28
:1016400040F00400606594F85C101020884030423F
:1016500018D021680968090714D5A86020680168B6
:10166000490304D50068000308D5A16C07E00168B0
:10167000C90503D4016821F008010160216C09B19A
:101680002046884794F85C102020884030424FF074
:10169000010631D021680968C9062DD5A86094F8E3
:1016A000350005282068016806D0490347D5006841
:1016B00000031DD4616C1CE021F01601016020685C
:1016C000416921F080014161206C08B9A06C20B112
:1016D0002068016821F00801016094F85C103F2047
:1016E0008840A86084F8348084F83560216D1FE05C
:1016F000E16B09B120468847606D00282BD0606DF2
:10170000C00714D0052084F835002068016821F056
:10171000010101600098401C0090B84203D8206885
:101720000068C007F6D184F8348084F83560E16C35
:10173000002910D001B02046BDE8F04308470168F9
:10174000C905D5D4016821F01001016084F8348006
:1017500084F83560CCE7BDE8F883000090000020F5
:10176000010080002DE9F041044600F09DF9064695
:101770005CB1002584F83450022084F835002068DC
:10178000016821F0010101600DE00120BDE8F08158
:1017900000F08AF9801B052805D920206065032008
:1017A00084F83500F2E720680068C007F0D12268AD
:1017B00011681F480140D4E901031843D4E90336F6
:1017C0003343184363691843A3691843E369184313
:1017D000236A18430843616A042903D1D4E90B132F
:1017E00019430843106020684069666A20F00701C9
:1017F00030460E43012704280AD1A06A064320463A
:10180000FFF7ACFA20B14020606584F83570BCE782
:10181000206846612046FFF78DFA94F85C203F214E
:1018200091408160656584F835700020AEE7000066
:101830003F8010F02DE9F0410446866D90F83400A9
:10184000002501280DD0012084F8340094F835706B
:101850000020012F07D084F8340002252846BDE877
:10186000F0810220FBE7022784F83570606520468E
:10187000FFF79EFA94F85C103F208840B060206823
:10188000016841F0160101602068416941F0800162
:101890004161206C20B12068016841F008010160BD
:1018A0002068016841F001010160D7E7704700003E
:1018B000044910B50A68024202D00860FFF7F6FF3B
:1018C00010BD0000143C01402DE9F84FDFF890B145
:1018D00000224FF001084FF0030A4FF00F090BF1FF
:1018E000040E00BF0B6808FA02F42340A3426ED135
:1018F0004D68022D01D0122D0ED1D50800EB850CBC
:10190000DCF820505607F70E09FA07F6B5430E69C2
:10191000BE402E43CCF82060066855000F790AFAC5
:1019200005FC07F0030726EA0C06AF4037430760C3
:101930004E68012E05D0022E03D0112E01D0122E9A
:101940000ED18768CE6827EA0C07AE403E4386601A
:101950004668A6430C79C4F30014944034434460B1
:10196000C4688E6824EA0C04AE402643C6604C6806
:10197000E4006FD53B4C256845F48045256024681C
:1019800022F0030504F480440094374C2E19D6F855
:10199000084895072F0F09FA07F5AC43334DA842C5
:1019A00001D100252EE0324DA84201D1012529E0C8
:1019B000304DA84201D1022524E02F4DA84201D18B
:1019C00003251FE02D4DA84202D104251AE041E075
:1019D0002B4DA84201D1052514E02A4DA84201D182
:1019E00006250FE0284DA84201D107250AE0274D22
:1019F000A84201D1082505E0254DA84201D10925BD
:101A000000E00A25BD402543C6F80858DBF8004031
:101A10005D464E689C43F60300D51C432C60DEF8FF
:101A2000004075464E689C43B60300D51C432C60AD
:101A30000B4D08352C684E689C43F60200D51C43BC
:101A40002C60074D0C352C684E689C43B60200D5BF
:101A50001C432C60521C102AFFF444AFBDE8F88FE1
:101A6000003C014044380240003001400000024088
:101A70000004024000080240000C02400010024036
:101A80000014024000180240001C024000200240E6
:101A9000002402400069084000D0012070470AB1CC
:101AA000816170470904FBE7014800687047000046
:101AB0008800002002480168491C0160704700004E
:101AC000880000200B4810B5016841F400710160E6
:101AD000016841F480610160016841F48071016036
:101AE000032000F0BBF8002000F006F800F018F822
:101AF000002010BD003C024010B5044607484FF4DA
:101B00007A710068B0FBF1F000F02BFF0022214653
:101B1000501E00F083F8002010BD0000900000204F
:101B200010B5052000F09AF8002211466FF00B0066
:101B300000F074F8002211466FF00A0000F06EF811
:101B4000002211466FF0090000F068F800221146EB
:101B5000501F00F063F800221146101F00F05EF8DD
:101B600000221146901E00F059F80022BDE81040F6
:101B70001146501E00F052B82DE9F04116460F46AE
:101B8000040004D094F83900002518B107E00120C2
:101B9000BDE8F08184F83850204601F0EFFA2420A7
:101BA00084F839002068C16821F40051C1602046E2
:101BB00002F0A6FC2068016921F4904101612068CF
:101BC000416921F02A0141612068016921F00F017A
:101BD000016120680169394301612068C16821F40D
:101BE0000061C1602068C1683143C1602068C1687C
:101BF00041F40051C160E563202084F8390084F885
:101C00003A000020C4E700F01F0201219140400982
:101C1000800000F1E020C0F800117047F0B40E4BD6
:101C20001B680C46C3F30223C3F10705042D00D93A
:101C30000425191D072901D2002300E0DB1E01261F
:101C400006FA05F1491E214099409E40761E164035
:101C50003143F0BC01F0D3BE0CED00E0064900F0CA
:101C6000070208684FF6FF03184040EA0220034AC3
:101C700010430860704700000CED00E00000FA051A
:101C8000D0F8B40302F02EBFC1EBC10200EB820218
:101C9000D0F8B403526C02F09BBEC1EBC10200EB62
:101CA0008202D0F8B403D2F8E82102F0E6BED0F800
:101CB000B40302F019BF70B50A460446090602F0E3
:101CC0007F0005D5C0EBC00104EB8101383105E090
:101CD000C2EBC20104EB810101F5EE7100258D70AC
:101CE0000870D009487094F88003012809D00120B9
:101CF00084F88003206803F01AFA84F880530020E7
:101D000070BD022070BD70B504460D460E0601F090
:101D10007F00C0EBC00104EB810101D5383101E047
:101D200001F5EE71ED0908704D708A60CB7000D03E
:101D3000C8800025022B00D10D7194F88003012882
:101D400009D0012084F88003206803F0D7F82846E2
:101D500084F8805370BD022070BD000070B5044649
:101D60000E4601F07F00C0EBC00104EB81010025AD
:101D7000C1F8E821C1E97C3581F8DD5181F8DC0149
:101D8000206901F5EE71012800D10A6194F8800301
:101D900001280DD0012084F880037006227C206881
:101DA00008D003F025FA00BF84F88053002070BDEE
:101DB000022070BD03F0FCF8F6E770B50D4604464E
:101DC000090605F07F0005D5C0EBC00104EB8101D9
:101DD000383105E0C5EBC50104EB810101F5EE7179
:101DE00001228A700870E809487094F8800301287D
:101DF00007D084F88023206803F0CBF9680602D06E
:101E000007E0022070BD217C04F56172206803F0B8
:101E10006FF9002084F8800370BD70B504460E464B
:101E200001F07F00C0EBC00104EB810100254A6492
:101E3000C1E91335012381F8393001F8380F2069E1
:101E4000012800D10A6194F8800301280BD084F89E
:101E500080337006227C206807D003F0C9F984F82B
:101E60008053002070BD022070BD03F0A1F8F6E79A
:101E70002DE9F84F044600680026054603F0F6FAFF
:101E8000002875D1206803F01AFB002870D0206864
:101E900003F015FB800704D52068416901F00201B9
:101EA0004161206803F00BFB010304F561704FF002
:101EB000010B4FF0000A00904DD5206803F0E1FAC5
:101EC000074646E0F80742D0F1B2206803F0EFFA87
:101ED0008046C00728D005EB4612C2F808BB20692F
:101EE000012811D1C6EBC60004EB8001D2F8102BFB
:101EF000D1F8E401C2F31202821AC1F8F421D1F838
:101F0000E8211044C1F8E801F1B22046FFF7C5FE10
:101F10002069012808D13EB9D4F8F00120B9206821
:101F20000121009A03F0E4F85FEA087007D5204623
:101F300000F04AFA05EB46110820C1F8080B5FEAE9
:101F4000C86004D505EB46111020C1F8080B7F08C6
:101F5000761C002FB6D1206803F0B1FA40034FF091
:101F600040095ED5206803F085FA0746002656E052
:101F7000D2E1F80751D0F1B2206803F089FA804627
:101F8000C00724D0D5F834280BFA06F08243C5F8F0
:101F9000342805EB4610C0F808B92069012807D19C
:101FA000C6EBC60004EB8000D0E910121144416476
:101FB000F1B22046FFF768FE2069012807D136B943
:101FC000E06C20B920680121009A03F091F85FEAE3
:101FD000087004D505EB46110820C1F808095FEA2E
:101FE000C86004D505EB46111020C1F808095FEA66
:101FF000486003D505EB4611C1F808995FEA88707F
:1020000004D505EB46110220C1F808095FEA086013
:1020100003D53146204601F037FE7F08761C002F9D
:10202000A7D1206803F04BFA00280DDAD5F8040890
:1020300020F00100C5F80408204600F0ABF9216843
:10204000486900F000404861206803F038FA000554
:102050000BD5D5F80808C00702D0204600F0BCF91F
:102060002068416901F400614161206803F027FAAA
:10207000C0044CD5D5F8040820F00100C5F80408C8
:102080000021206803F0C2F90020FF2107E000BF13
:1020900005EB4012C2F80819C2F8081B401C626820
:1020A0008242F5D84FF0FF30C5F81808D5F81C0863
:1020B00040F00110C5F81C08206B60B1D5F8840809
:1020C00040F00B00C5F88408D5F8440840F00B0038
:1020D000C5F844080BE0D5F8140840F00B00C5F82B
:1020E0001408D5F8100840F00B00C5F81008D5F812
:1020F000000820F4FE60C5F80008217C2068009AE2
:1021000002F0F6FF2168486900F4805048612068B9
:1021100003F0D5F980047DD5206802F02FFF2068F8
:10212000C16821F47051C160206803F081F978B171
:102130000320C4F81490E06000F024FA7749784A4C
:10214000014491420AD22068C16841F4705158E0BC
:102150004FF40070C4F80CA0606136E07149724A17
:102160000144914204D22068C16841F4605148E0C2
:102170006E496F4A0144914204D22068C16841F41B
:1021800050513EE06B496C4A0144914204D22068B0
:10219000C16841F4405134E06849694A01449142C0
:1021A00004D22068C16841F430512AE06549664A8A
:1021B0000144914204D22068C16841F4205120E0DA
:1021C0006249421862498A4204D22068C16841F4D7
:1021D000105116E05F49604A0144914204D22068E0
:1021E000C16841F400510CE05C4908445C498842F4
:1021F0002068C16803D241F4E05102E00AE041F4F2
:10220000C051C160204600F0B5F82068416901F472
:1022100000514161206803F052F9C00636D52168AB
:10222000886920F010008861D5F8208008F00F0040
:10223000C0EBC00004EB8007C8F3434007F5EE771E
:10224000022802D0062812D01BE047F6F07018EAE8
:10225000000F16D0C8F30A1290462846F96803F01A
:1022600032F9F8684044F860B869404408E0082250
:102270002846009903F027F9B969C8F30A10084401
:10228000B8612068816941F010018161206803F024
:1022900016F9000707D5204600F080F8206841694C
:1022A00001F008014161206803F009F9C00208D576
:1022B000F1B2204600F056F82068416901F480111F
:1022C0004161206803F0FBF8800208D5F1B2204696
:1022D00000F04CF82068416901F400114161206868
:1022E00003F0EDF8400007D52046FFF7C9FC206851
:1022F000416901F080414161206803F0E0F8400746
:102300000AD520684568680702D52046FFF7CFFC4C
:102310002068416829434160BDE8F88F405327FF9A
:1023200000350C00401E1BFF40420F0000DC0BFF7D
:10233000804F1200808CF9FE20D6130060B6E5FEB7
:1023400060E3160000D3CEFE40771B00C05BB3FEF7
:10235000C091210000CA91FE20753800E05459FE5A
:10236000E09C4100D0F8B40302F0D9BBD0F8B4032C
:1023700002F0D7BB10B50446C068012100B90021A6
:10238000D4F8B40302F011FCD4F8B403BDE8104053
:1023900002F0DABBD0F8B40302F0F5BBD0F8B40316
:1023A00002F0F7BB10B5044690F88003012809D06D
:1023B000012084F88003206803F095F8002084F859
:1023C000800310BD022010BDD0F8B42300F5617168
:1023D000104602F0F4BB000010B50446D0F8B40378
:1023E00002F021FC2068D0F8001E41F00101C0F885
:1023F000001E206A002804D00248016841F006014E
:10240000016010BD10ED00E02DE9F047DFF86491A8
:1024100005460F46D9F8000000F00F01F8B28046DB
:10242000B94208D2014689F80010D9F8000000F03E
:102430000F00B84274D128784F4C800705D520682A
:10244000A96820F0F000084320602878C00759D020
:1024500049496868083901281AD002281BD0032886
:1024600019D00968890700295ADA216821F0030187
:1024700001432160FFF718FB6968064641F2883086
:10248000012911D002291DD00329824627D035E029
:1024900009688903E7E709688901E4E7FFF704FBB6
:1024A000811B514501D926E082462068C0F3810096
:1024B0000128F3D126E000BFFFF7F6FA811B514552
:1024C00001D918E082462068C0F381000228F3D1C8
:1024D00018E000BFFFF7E8FA811B51450BD82068D0
:1024E000C0F381000328F5D10CE000BFFFF7DCFA50
:1024F000811B514502D90320BDE8F087206810F008
:102500000C0FF3D1D9F80010484601F00F01B94281
:1025100008D980F80080006800F00F00B84201D0B0
:102520000120E9E72878400705D52068E96820F40C
:10253000E050084320602878000706D52068296904
:1025400020F4604040EAC100206000F051F82168AA
:10255000F02292FAA2F201F0F001B2FA82F2D14036
:10256000064A515CC840064908600020FFF7C4FADB
:102570000020C1E7003C0240083802408471000896
:102580009000002001480068704700009000002083
:1025900008480949006809684FF4E05292FAA2F22B
:1025A00001F4E051B2FA82F2D140044A515CC840D1
:1025B0007047000090000020083802408471000835
:1025C00008480949006809684FF4604292FAA2F28B
:1025D00001F46041B2FA82F2D140044A515CC84031
:1025E0007047000090000020083802408471000805
:1025F00030B51948006810F00C01184812D0184C7A
:1026000004290ED008290DD11349091F0A6802F0C8
:102610003F030A68550247F6C07204D5B4FBF3F0D5
:1026200003E0204630BDB0FBF3F00B6809681340AF
:1026300092FAA2F2B2FA82F2D34058434FF44032F7
:1026400092FAA2F201F44031B2FA82F2D140491C6E
:102650004900B0FBF1F030BD083802400024F4001E
:10266000001BB7002DE9F84F0446DFF8CC82007854
:10267000A8F1040BC007ABF1040537D0D8F800105F
:102680004046C1F38101012908D00068C0F38100F0
:1026900002280AD1DBF80000400206D52868800332
:1026A00024D56068002878D020E0A3492079891FCC
:1026B0000870606868B1FFF7F7F9064605E000BFEB
:1026C000FFF7F2F9801B642868D828688003F7D5E3
:1026D0000CE0FFF7E9F9064605E000BFFFF7E4F973
:1026E000801B6428F0D828688003F7D42078934EA4
:1026F00080074FF0010A4FF0000742D5D8F80010CC
:10270000404611F00C0F08D00068C0F38100022889
:102710000AD1DBF80000400206D42868800714D5EF
:10272000E068012839D110E0E068D8B1C6F800A00F
:10273000FFF7BAF9814605E0FFF7B6F9A0EB09000B
:102740000228C1D828688007F6D52868F82292FAAE
:10275000A2F22169B2FA82F220F0F8009140084317
:1027600028600EE03760FFF79FF9814606E000BF62
:10277000FFF79AF9A0EB090002280FD82868800714
:10278000F6D42078000728D56D486169A1B1C0F85A
:1027900000A0FFF789F9814608E0CAE079E000BFB0
:1027A000FFF782F9A0EB0900022872D862486C306A
:1027B00000688007F4D510E00760FFF775F98146DF
:1027C00006E000BFFFF770F9A0EB0900022860D80F
:1027D00059486C3000688007F4D42078400749D508
:1027E00055483830016841F080510160006800F0C0
:1027F000805000905348016841F480710160FFF7F8
:1028000053F9814606E000BFFFF74EF9A0EB09003F
:1028100002283ED84B480068C005F5D5DFF818916E
:10282000207A09F1680989F80000A06888B1FFF7EB
:102830003BF9009008E000BFFFF736F90099411A14
:1028400041F2883081426CD8D9F800008007F3D576
:1028500010E0FFF729F9009008E000BFFFF724F926
:102860000099411A41F2883081425AD8D9F80000C3
:102870008007F3D4A069E0B3D8F80010C1F3810158
:10288000022956D00228376604D0FFF70DF9044616
:102890004AE046E0FFF708F9074604E0FFF704F9CD
:1028A000C01B02283DD828688001F7D4D4E907016D
:1028B000084347F6C07292FAA2F2616AB2FA82F253
:1028C0009140A26A4FF0FF3303EB52024FF44033C2
:1028D00093FAA3F3B3FA83F39A40114308434FF0FA
:1028E000706292FAA2F2E16AB2FA82F2914008436F
:1028F00000E01CE0CBF80000C6F860A0FFF7D4F8B9
:10290000044604E0FFF7D0F8001B022809D8286825
:102910008001F7D50BE000BFFFF7C6F8001B0228C7
:1029200002D90320BDE8F88F28688001F4D4002084
:10293000F8E70120F6E700000838024000004742AF
:10294000800E4742007000404FF0E02104280869E3
:1029500003D020F004000861704740F00400FAE75B
:10296000704710B5401EB0F1807F01D3012010BD2B
:102970004FF0E02460610F21601701F040F8002063
:10298000A06107202061002010BD10B5FFF7E8FF0F
:1029900010BD7047704730B590F83820012A20D01C
:1029A000012280F83820022380F8393003685C68FF
:1029B00024F070045C6003685C680D682C435C6004
:1029C00003689C6824F080049C6003689C684968E4
:1029D0000C439C6080F83920002180F838100846AC
:1029E00030BD022030BD10B5040003D094F839008A
:1029F00010B107E0012010BD002084F83800204607
:102A000000F00CF8022084F83900211D206801F044
:102A100073FB012084F83900002010BD08B501685F
:102A20003248B1F1804F0BD0314A914210D1016848
:102A300041F002010160006800F00200009008BD52
:102A4000016841F001010160006800F00100F5E754
:102A5000284A914207D1016841F0040101600068F1
:102A600000F00400EAE7244A914207D1016841F0EE
:102A700008010160006800F00800DFE71F4A91428A
:102A80000ED1016841F0100101600068012200F0E0
:102A90001000009000213620FFF7C0F8362010E02B
:102AA000174A914211D1016841F02001016000688C
:102AB000012200F02000009000213720FFF7AEF83F
:102AC0003720BDE80840FFF79EB80E4A914202D178
:102AD0000648001DABE70C4A9142B0D1016841F0B5
:102AE00040010160006800F04000A7E74038024064
:102AF0000004004000080040000C004000100040AE
:102B00000014004000040140001800400168CA6839
:102B100042F00102CA600068016841F001010160F1
:102B20000020704770B5044690F83800012817D08F
:102B3000012584F83850022084F839002068826822
:102B400022F0770222F47F4282600868502837D052
:102B50000DDC202859D005DC88B3102841D151E084
:102B6000022070BD302853D040283AD13FE0602881
:102B70002ED070280BD0B0F5805F03D0B0F5005F89
:102B80002FD110E02068816821F0070115E0CB68A3
:102B9000D1E90121206801F01AFB2168886840F022
:102BA000770088601DE0CB68D1E90121206801F041
:102BB0000EFB2068816841F48041816011E01EE0D5
:102BC000CA684968206801F0CBFB5021206806E004
:102BD000CA684968206801F0D4FB6021206801F0D0
:102BE00000FB84F83950002084F8380070BDCA68B2
:102BF0004968206801F0B4FB40212068EFE700211C
:102C00002068ECE710212068E9E720212068E6E74A
:102C100030212068E3E7704770B504460068016919
:102C20004FF00005C943890715D4C168C943890716
:102C300011D4E91E01610120207620688069800797
:102C4000204602D0FFF7E7FF04E000F00BF9204632
:102C500000F08DF9257620680169C943490717D42A
:102C6000C168C943490713D46FF004010161022010
:102C700020762068806910F4407F204602D0FFF75C
:102C8000CAFF04E000F0EEF8204600F070F9257667
:102C900020680169C943090716D4C168C9430907F7
:102CA00012D46FF008010161042020762068C06909
:102CB0008007204602D0FFF7AEFF04E000F0D2F814
:102CC000204600F054F9257620680169C943C906F9
:102CD00017D4C168C943C90613D46FF0100101614C
:102CE000082020762068C06910F4407F204602D07A
:102CF000FFF791FF04E000F0B5F8204600F037F947
:102D0000257620680169C943C90708D1C168C9434C
:102D1000C90704D1891E0161204600F045F92068E9
:102D20000169C943090609D4C168C943090605D424
:102D30006FF0800101612046FFF72BFE20680169DA
:102D4000C943490609D4C168C943490605D46FF08F
:102D500040010161204600F028F920680169C9435B
:102D600089060BD4C168C943890607D46FF02001D6
:102D700001612046BDE87040FFF70CBE70BD000049
:102D800070B5016800240225012086B0B1F1804FA2
:102D900009D02A4A914213D110200090CDE9015464
:102DA000694627482CE00F210091CDE90154CDE977
:102DB00003402448694600BFFEF786FD06B070BD9B
:102DC000214A914207D14FF470400090CDE901545F
:102DD00069461E4814E01E4B1E4A1F4E994212D1EE
:102DE0000090CDE9015469461046CDE90345FEF750
:102DF0006BFD4FF4E0500090CDE901546946304638
:102E0000CDE90345D8E71548814209D1E420009077
:102E1000CDE901540320CDE9034069461046CBE7D4
:102E20000F488142CAD14FF410700090CDE901548F
:102E30000920CDE9034069463046BDE70004004063
:102E4000000402400000024000080040000C024064
:102E5000000C004000200240001C02400004014021
:102E600000180040704770B5044690F838000D46D1
:102E700001280DD0012684F83860022084F839003A
:102E800042B1042A18D0082A2AD00C2A4DD139E0A0
:102E9000022070BD206801F0ADF92068816941F021
:102EA000080181612068816921F004018161206845
:102EB00081692A69114311E0206801F0C7F920688F
:102EC000816941F4006181612068816921F4806138
:102ED0008161206881692A6941EA0221816124E0D7
:102EE000206801F0E5F92068C16941F00801C1617D
:102EF0002068C16921F00401C1612068C1692A69A3
:102F0000114311E0206801F003FA2068C16941F41F
:102F10000061C1612068C16921F48061C1612068DC
:102F2000C1692A6941EA0221C16184F8396000203F
:102F300084F8380070BD10B5040003D094F839004F
:102F400010B107E0012010BD002084F838002046B1
:102F500000F00CF8022084F83900211D206801F0EF
:102F6000CBF8012084F83900002010BD704770476D
:102F700010B504460068012201F01EF908492068D6
:102F8000884202D00749884203D1416C41F4004194
:102F900041642068016841F001010160002010BD1A
:102FA00000000140000401407047704710B504461E
:102FB0000068416994F83920C1F3C011212A0BD16E
:102FC00051B1416921F080014161206B08B1FEF7E8
:102FD0009BFA204601F045FA2068416994F83A20AE
:102FE000C1F38011222A0BD151B1416921F0400176
:102FF0004161606B08B1FEF787FA204601F023FAC1
:10300000002010BD7047000070B5026804461068CB
:10301000D168536910F00F0F50D003F0010501F48F
:10302000907635435DD0C20705D0CA0503D5E26B63
:1030300042F00102E263420705D5DA0703D0E26BF2
:1030400042F00202E263820705D5DA0703D0E26BA1
:1030500042F00402E263020705D5DA0703D0E26B0F
:1030600042F00802E263E26B002A33D0800604D506
:10307000880602D5204601F0FDF920684069E16B21
:10308000C0F38010090700D428B3204601F0DBF913
:103090002068416949061AD5416921F04001416122
:1030A000606BA0B11B490165606BFEF774FA0028E4
:1030B00010D0606B016DBDE870400847830610D5E5
:1030C0008B060ED52046BDE8704001F0D3B92046EE
:1030D000FFF798FF70BD2046FFF794FF0020E063E4
:1030E00070BD030606D50B0604D52046BDE870402A
:1030F00001F05CBB4006F3D54806F1D5D168204607
:1031000021F04001D160202184F8391000F08BF9C2
:1031100070BD0000A743000870B5040004D094F807
:103120003900002510B106E0012070BD84F8385048
:10313000204600F023F8242084F839002068C16874
:1031400021F40051C160204601F0DAF920680169DC
:1031500021F4904101612068416921F02A01416117
:103160002068C16841F40051C160E563202084F803
:10317000390084F83A00002070BD0000F0B5064622
:10318000056849480024494902220323072787B0DC
:1031900085422FD1086840F0100008600868694631
:1031A00000F010000590C0208DE81500CDE9033730
:1031B0003F48FEF789FB404D3E4828604FF00060D5
:1031C000C5E901044014C5E9034080106C61C5E9FC
:1031D00006402C6228466C62FEF7C4FA08B1FDF77F
:1031E000FFFD7563022200212520AE63FEF716FD68
:1031F00025201BE02D48314E001FB5421AD1016831
:1032000041F4003101600068694600F40030059027
:103210000C208DE81500CDE903372948FEF754FB53
:10322000002201212620FEF7F9FC2620FEF7EBFC08
:1032300007B0F0BD234EB54218D1016841F480219A
:1032400001600068694600F4802005904FF44070EA
:103250008DE81500CDE903371B48FEF735FB00224A
:1032600001212720FEF7DAFC2720DFE717488542F7
:10327000DED1086840F0200008600868694600F068
:10328000200005904FF484408DE815000820CDE91A
:1032900003300F48FEF718FB002201214720FEF7FC
:1032A000BDFC4720C2E70000001001404438024046
:1032B0000004024040640240A40900200044004091
:1032C0000000024000480040000C02400014014091
:1032D0000018024070B5044690F83A00202839D111
:1032E000A9B3A2B394F83800012833D0012084F8A0
:1032F0003800A162A2850025E563222084F83A0007
:10330000636B1548D863636B14481864636B144887
:10331000D864606B134605650846666B21680246F3
:103320003046091DFEF786FA2068C16841F48071B5
:10333000C1602068416941F0010141612068416933
:1033400041F04001416184F83850002070BDFFE732
:103350000120FBE70220F9E7014400083D44000892
:10336000B743000890F83A30202B1DD1D1B1CAB133
:1033700090F83830012B17D081628285C2850021F8
:10338000C163222280F83A2080F8381001684A6927
:1033900042F001024A610068C16841F49071C16065
:1033A00000207047012070470220704738B504465E
:1033B00017480022844216D10068016840680090D6
:1033C00014481549134B00780D8832335855088836
:1033D000401C08800888FA2800D30A8001220D4981
:1033E0000B48FFF7BFFF0D4DAC4210D102F000F9C2
:1033F0000B49012008702868016840680090284641
:10340000BDE83840034912223239FFF7ABBF38BD5F
:10341000640900204C02002050000020E408002035
:103420000100002070477047FEE70020401C322852
:10343000FCD3704710B50F4C012211462046FEF711
:103440002EFBFFF7F2FF012202212046FEF727FBA9
:10345000FFF7EBFF002202212046FEF720FBFFF7DB
:10346000E4FF002201212046FEF719FBBDE81040D1
:10347000FFF7DBBF0004024010B50F4C0022012112
:103480002046FEF70CFBFFF7D0FF0022022120466A
:10349000FEF705FBFFF7C9FF012211462046FEF7A4
:1034A000FEFAFFF7C2FF012202212046FEF7F7FADB
:1034B000BDE81040FFF7B9BF0004024010B5084C4A
:1034C000012211462046FEF7EAFAFFF7AEFF00227E
:1034D00001212046FEF7E3FABDE81040FFF7A5BF43
:1034E0000004024070B5104C104D4FF480662078F7
:1034F00020B131462846FEF7CDFA40B13146284684
:10350000FEF7C8FA08B101202070002070BD0A2023
:1035100002F052FD0020207031462846FEF7BAFA2C
:103520000028F2D1012070BD80000020000C024074
:10353000104810B50E4901600321416000214FF48D
:1035400000228160C0E903124FF44012C0E9052156
:10355000C1610162416281620121C162FDF776FDB4
:10356000002803D0BDE81040FDF73ABC10BD0000B4
:103570000064004064080020094808B5016841F46F
:10358000800101600068002200F480000090114674
:103590003A20FEF743FBBDE808403A20FEF733BB74
:1035A000303802402DE9F047524886B000240168C7
:1035B00041F010010160016801F0100105910168FE
:1035C00041F040010160016801F04001059101688E
:1035D00041F002010160016801F0020105910168FA
:1035E00041F001010160016801F0010105910168EC
:1035F00041F008010160016801F0080105910168CE
:1036000041F480710160016801F4807105910168E5
:1036100041F080010160016801F0800105910168BD
:1036200041F0200101600068DFF8CCA000F020002C
:10363000059000228C215046FEF731FADFF8BC805D
:103640004FF40056002231464046FEF728FADFF8D4
:10365000B09044F24007002239464846FEF71FFA70
:103660000C200125CDE900050320CDE90240694683
:103670005046FEF729F9022000902248CDE90104C6
:1036800069465046FEF720F90096CDE90154694697
:1036900040460394FEF718F90097CDE901546946B6
:1036A00048460394FEF710F9A802CDE900046946E4
:1036B00015480294FEF708F980200090CDE90154E6
:1036C000694650460394FEF7FFF870200090CDE95C
:1036D0000154694650460394FEF7F6F80222002191
:1036E0000720FEF79BFA0720FEF78DFA06B0BDE82B
:1036F000F0870000303802400010024000180240FD
:103700000014024000001110000C024010B51F48C8
:103710008EB04FF080410160A7210024C0E9011460
:1037200042F20F71C0E90314FFF75DF908B1FDF72C
:1037300057FB4FF48050079007A91448FFF7F2F9A0
:1037400008B1FDF74DFB1148FFF7F5FB08B1FDF798
:1037500047FB0B940BA90D480C94FFF71CF908B11B
:10376000FDF73EFB6020009041F28830CDE9010476
:103770000022694605480494FFF775FB08B1FDF780
:103780002FFB0248FFF7FCFA0EB010BD84060020A4
:103790001CB50E480C49002401605321C0E90114F6
:1037A0004FF47A71C160FFF71EF908B1FDF718FBFD
:1037B0000094694605480194FFF7EDF8002801D010
:1037C000FDF70EFB1CBD0000001000407407002038
:1037D0001CB50E480C49002401605321C0E90114B6
:1037E0004FF47A71C160FFF7FEF808B1FDF7F8FAFF
:1037F0000094694605480194FFF7CDF8002801D0F0
:10380000FDF7EEFA1CBD000000140040B0070020D8
:103810000D4810B50B4901600C49416000214FF47F
:1038200080628160C0E903120422C0E905210A46D2
:10383000C161FEF7A1F9002803D0BDE81040FDF7F3
:10384000CFBA10BD00100140E4080020A08601009E
:103850000D4810B50B4901604FF4E1314160002182
:1038600081600C22C160C0E9041281610A46C16115
:10387000FEF782F9002803D0BDE81040FDF7B0BA8A
:1038800010BD0000004800402409002008480749F6
:1038900001604FF4E1314160002181600C22C16080
:1038A000C0E904128161C161FFF736BC0014014018
:1038B00064090020FEE700002DE9F041FDF79EF9C4
:1038C000444FDFF81481387C012803D0787C01282C
:1038D00002D006E0002200E0012240214046FEF72F
:1038E000DEF8787A3D4E0024022807D0B483788A27
:1038F000010525D580061ED500221DE03848394D2A
:10390000008810B92878401C287028780A280ED919
:10391000B4830A2002F050FB4FF60C60B0832C7089
:10392000282002F049FBB4830A2002F045FB4FF443
:10393000FA70B083DBE7012220214046FEF7AFF8A2
:10394000788AC10408D5800601D5002200E0012252
:1039500010214046FEF7A3F8788A234983044FF4E8
:103960007A7207D5830601D58A8304E04FF618439F
:103970008B8300E08C8341042AD581064FF0804080
:1039800003D54FF4E171416300E04263114B174CE2
:103990001433B3F90010B4F91C00FCF77DFFA083C9
:1039A000134CB3F90210B4F91C00FCF775FFA083A7
:1039B000104CB3F90410B4F91C00FCF76DFFA083A0
:1039C000B3F906100C4BB3F91C00FCF765FF9883A4
:1039D000BDE8F081CC01002000100240640100200D
:1039E000600000202E00002098010020940000209C
:1039F000C8000020FC0000203001002070470907AB
:103A0000090E002806DA00F00F0000F1E02080F82F
:103A1000141D704700F1E02080F80014704770B565
:103A20000024002104F1B00000F021F90021084633
:103A300000F01DF90021102000F019F900250121E6
:103A4000002000F014F96D1CEDB2802DF7D3641C3A
:103A5000E4B2082CE5D370BD484800B5026887B0D1
:103A6000002142F004020260026802F004020592A2
:103A7000026842F002020260006800F00200059055
:103A8000032000900120CDE9010102200390694646
:103A90003B48FDF719FF4FF4167002F08DFA002134
:103AA000AE2000F0E4F80021084600F0E0F8002124
:103AB000102000F0DCF80021402000F0D8F80021B0
:103AC000B02000F0D4F80021812000F0D0F80021CF
:103AD000FF2000F0CCF80021A12000F0C8F8002160
:103AE000A62000F0C4F80021A82000F0C0F80021B2
:103AF0003F2000F0BCF80021C82000F0B8F80021F9
:103B0000D32000F0B4F80021084600F0B0F80021FE
:103B1000D52000F0ACF80021802000F0A8F80021AA
:103B2000D82000F0A4F80021052000F0A0F8002122
:103B3000D92000F09CF80021F12000F098F8002135
:103B4000DA2000F094F80021122000F090F8002113
:103B5000DB2000F08CF80021302000F088F80021F4
:103B60008D2000F084F80021142000F080F800215E
:103B7000AF2000F07CF807B000BD000030380240F4
:103B80000004024010B50A460446002102F1B000CC
:103B900000F06DF8102040EA1410002100F067F8E2
:103BA00004F00F00BDE81040002100F060B80000F4
:103BB0002DE9F041203A00240D468046D6B27F28F8
:103BC00003D900208D1C8046EDB2102B294610D061
:103BD000FFF7D8FF164906EB460001EB400501212F
:103BE000285D00F044F8641CE4B2062CF7D3BDE86D
:103BF000F081FFF7C7FF0F4F04EB06100121385C7F
:103C000000F035F8641CE4B2082CF5D36D1CE9B261
:103C10004046FFF7B7FF002404EB061038440121AB
:103C2000007A00F024F8641CE4B2082CF4D3DEE738
:103C30006C690008946B00082DE9F041984617461E
:103C40000E46044600250DE0434631462046FFF768
:103C5000AFFF0834E4B2782C02D90024B61CF6B2C7
:103C60006D1CEDB27A5D002AEED1BDE8F081C0B2E4
:103C700009B101F0A6BC01F08DBC00000148FEF7BF
:103C8000F7B80000040A00202DE9F84F0F46C1EBF9
:103C9000C70100EB810582460668D5E91301441A85
:103CA000286C3835A04200D20446E01C4FEA900848
:103CB00006EB471916E0441AA868A04200D2044651
:103CC000E01C4FEA90089AF810000090A3B2FAB2F4
:103CD0003046E96801F018FCE8682044E860A8690B
:103CE0002044A861D9F8180980B2404505D9D5E922
:103CF0000501814201D20028DDD134B90120D6F876
:103D00003418B8408143C6F834180020BDE8F88F55
:103D100070B504462DED028BF7EE000AB0F91C00D9
:103D2000451A00EE105AF8EEC08ABDEEE88A18EE89
:103D3000100A002800DA40424FF49671884218DADF
:103D400018EE100A002800DA404290FBF1F0FCF770
:103D5000F5FB9FED371B53EC112BFCF70EFB9FED92
:103D6000361B53EC112BFCF761FAFCF72AFC00EE32
:103D7000900A01EE105A94ED090A18EE100AB8EEF6
:103D8000C11A84ED080A002884ED091A31EE400AB0
:103D900084ED0A0A00DA4042B4F91A1094ED0B0AD5
:103DA000884203DA30EE280A84ED0B0A94ED0C1AEF
:103DB000B4EEC10AF1EE10FA01DDB0EE410AB1EE47
:103DC000411A84ED0B0AB4EEC10AF1EE10FA01D2E9
:103DD000B0EE410A84ED0B0A94ED001A61EE200A60
:103DE00060EEA80AC4ED030A94ED011A21EE000A60
:103DF00084ED040A94ED021A30EE800A21EE091ACD
:103E000084ED051A30EE010A10EE100AFCF7C6FB2D
:103E1000FCF7A5FBB4F91E1000B2814200DA084697
:103E20004942814200DD0846BDEC028B00B270BD04
:103E3000333333333333D33F666666666666E63FB5
:103E40001648DFED170A9FED171AB1EE0C0A80EC49
:103E5000030AC82141834FF4FA62DFED131A134BB2
:103E6000C283C0ED0C1A1B888383343080EC030AB4
:103E70004183C283C0ED0C1A8383343080EC030A83
:103E80004183C283C0ED0C1A8383343080EC030A73
:103E90004183C283C0ED0C1A8383704794000020D5
:103EA0009A99993E0000000000409C4614000020B2
:103EB000704700000E48DFED0F0A9FED0F1AB1EEBC
:103EC0000C0A80EC030AC82141834FF4FA62DFED4B
:103ED0000B1AC283C0ED0C1A00238383343080ECAC
:103EE000030A4183C283C0ED0C1A8383704700002C
:103EF000640100209A99993E0000000000409C4611
:103F00007047000010B50021425CFF2A03D142181F
:103F1000D279FE2A04D0491CC9B20829F4D310BDB5
:103F20000844174C4178827801EB02210AB2628082
:103F3000C178037901EB03210BB22380417921730E
:103F4000807960730FA104F1100001F087FB10234A
:103F500004F1100202210020FFF76EFE94F90D30EB
:103F600094F90C200AA104F1100001F077FB04F190
:103F7000100210230421BDE810400020FFF75CBEB2
:103F8000EC010020593A25356420503A253564006B
:103F90004D3A253564204E3A2535640010B5FDF7BD
:103FA00089FDBDE81040FEF7F0BC000030B52348A5
:103FB00093B00025016841F080510160006800F075
:103FC000805011901E48016841F440410160006832
:103FD000022400F4404011900120009001908005DF
:103FE000CDE906400C2008904FF4A870CDE90904F3
:103FF00007200B906846FEF735FB0CA90F2081E8DF
:1040000031004FF4A0500F90E002109005210CA851
:10401000FEF7FAF900B1FEE7FEF7B4FA4FF47A7151
:10402000B0FBF1F0FEF79DFC0420FEF78DFC0022B2
:104030001146501EFDF7F2FD13B030BD403802406E
:10404000007000401048016841F4700101600F48A1
:10405000016841F0010101600C4A00210832116041
:1040600002680B4B1A400260031D0A4A1A6002687C
:1040700022F48022026005480C3001600249580693
:10408000803908607047000088ED00E00038024089
:10409000FFFFF6FE1030002410B502F0D7F8BDE89F
:1040A00010400148FEF7B8BD7407002070B50F4CF2
:1040B0006068B0F5FA7F0ADB0D4822684FF4804152
:1040C000002562B10022FDF7EAFC256065606068AA
:1040D000401C6060BDE870400648FEF79DBD0122AF
:1040E000FDF7DDFC01202060F0E700000C0000205F
:1040F00000140240B0070020F0B50268234B244DA5
:10410000244E254F254C4FF0804C984209D06045F5
:1041100007D0A84205D0B04203D0B84201D0A04297
:1041200004D122F0700E4A6842EA0E0298421BD077
:10413000604519D0A84217D0B04215D0B84213D06C
:10414000A04211D0164DA8420ED0164DA8420BD059
:10415000154DA84208D0154DA84205D0144DA842CF
:1041600002D0144DA84203D122F44075CA682A43F4
:1041700002608A68C2620A688262984201D0A042E4
:1041800001D10969016301214161F0BD00000140D5
:104190000004004000080040000C00400004014002
:1041A0000040014000440140004801400018004028
:1041B000001C00400020004010B50123046A8B4021
:1041C0009C430462036A8A401343036210BD10B526
:1041D000846842EA032224F47F440A432243826033
:1041E00010BD826822F070020A4342F0070181602C
:1041F0007047000030B5026A22F001020262026AD2
:10420000436884690D6824F07304254322F0020496
:104210008A6822430B4CA04202D00B4CA0420BD127
:1042200022F00804CA6823F4407322434C6922F048
:1042300004021C438B6923434360856149684163E1
:10424000026230BD000001400004014030B5026A46
:1042500022F010020262026A436884690D6824F445
:10426000E64444EA05248D6822F0200242EA051261
:104270000D4DA84202D00D4DA8420ED1CD6822F0BE
:10428000800242EA05124D6923F4406343EA850344
:104290008D6922F0400243EA8503436084614968E6
:1042A0008163026230BD0000000001400004014053
:1042B00030B5026A22F480720262036A4268C469FD
:1042C00023F4007324F073050C682C438D6843EAD3
:1042D00005230D4DA84202D00C4DA8420ED1CD6849
:1042E00023F4006343EA05234D6922F4405242EA75
:1042F00005128D6923F4806342EA05124260C461AD
:104300004968C163036230BD000001400004014000
:1043100030B5026A22F480520262046A4268C369BC
:104320000D6823F4E64343EA05238D6824F4005422
:1043300044EA0534084DA84202D0084DA84204D1F1
:104340004D6922F4804242EA85124260C3614968A5
:104350000164046230BD000000000140000401401F
:1043600010B5036A046A24F001040462846924F02D
:10437000F00444EA021423F00A020A438461026250
:1043800010BD10B5036A23F0100303628369046A49
:1043900023F4704343EA023224F0A00343EA0111FC
:1043A0008261016210BD10B5806B0021C185C1849E
:1043B000FEF728FE10BD70B5846B2068406994F844
:1043C0003910C0F3C0100025212904D118B1E584AB
:1043D000204600F046F82068406994F83A10C0F38F
:1043E0008010222904D118B1E585204600F02BF871
:1043F000E06B40F01000E0632046FEF703FE70BD66
:1044000010B50146806B09680968C90513D40021FD
:10441000C1850168CA6822F48072CA6001684A696D
:1044200022F001024A6101684A6922F040024A61B1
:10443000202180F83A10FEF7B9FF10BD10B5806B4F
:10444000FEF7F0FF10BD0168CA6822F49072CA60DE
:1044500001684A6922F001024A61202180F83A107D
:1044600070470168CA6822F0C002CA60202180F843
:104470003910704710B590F83A10222901D0022067
:1044800010BD8168B1F5805F11D001690029016814
:104490001FD0496801F07F03816A4A1C82620B7059
:1044A000C18D491E0904090CC18518D026E0026996
:1044B000816A002A0268526805D0D2B20A80816AF5
:1044C000491C8162ECE7C2F308020A80816A891CF8
:1044D000F7E74A68816A4B1C83620A70E0E701686B
:1044E000CA6822F49072CA6001684A6922F0010227
:1044F0004A61202180F83A10FEF758FF002010BDD5
:104500002DE9F04104460068016921F44052E16858
:10451000114301612168C86849F20C629043236924
:10452000A268E5691A4363692B431A430243CA60D0
:104530002168486920F44072A06910434861E1692C
:104540006425B1F5004F9748974A21684FF032082B
:104550003FD0914201D081427CD1FEF731F800EB8F
:10456000C00101EB001061688900B0FBF1F6FEF7B5
:1045700027F800EBC00101EB001061688900B0FB77
:10458000F1F0B0FBF5F06FF01801484306EB800145
:1045900008EB0110B0FBF5F000F0F006FEF710F8A4
:1045A00000EBC00101EB001061688900B0FBF1F085
:1045B000B0FBF5F006EB0016FEF702F800EBC001C9
:1045C00001EB001061688900B0FBF1F7FDF7F8FF1F
:1045D000D2E0914201D081423DD1FDF7F1FF00EBE5
:1045E000C00101EB001061684900B0FBF1F0B0FBC5
:1045F000F5F00601FDF7E4FF00EBC00101EB001050
:1046000061684900B0FBF1F7FDF7DAFF00EBC0018C
:1046100001EB001061684900B0FBF1F0B0FBF5F070
:104620006FF01801484307EB800108EBC100B0FBB5
:10463000F5F000F0F80006EB4006FDF7C1FF00EBD7
:10464000C00101EB001061684900B0FBF1F7FDF714
:10465000B7FF3CE055E0FDF79BFF00EBC00101EB2D
:10466000001061684900B0FBF1F0B0FBF5F0060105
:10467000FDF78EFF00EBC00101EB001061684900FF
:10468000B0FBF1F7FDF784FF00EBC00101EB001078
:1046900061684900B0FBF1F0B0FBF5F06FF0180174
:1046A000484307EB800108EBC100B0FBF5F000F0D8
:1046B000F80006EB4006FDF76BFF00EBC00101EBD5
:1046C000001061684900B0FBF1F7FDF761FF00EBF6
:1046D000C00101EB001061684900B0FBF1F0B0FBD4
:1046E000F5F06FF01801484307EB800108EBC100BB
:1046F000B0FBF5F000F00700216830448860BDE8A9
:10470000F081FDF745FF00EBC00101EB001061688F
:104710008900B0FBF1F6FDF73BFF00EBC00101EBB8
:10472000001061688900B0FBF1F0B0FBF5F06FF0AC
:104730001801484306EB800108EB0110B0FBF5F0CF
:1047400000F0F006FDF724FF00EBC00101EB0010C4
:1047500061688900B0FBF1F0B0FBF5F006EB0016E4
:10476000FDF716FF00EBC00101EB00106168890046
:10477000B0FBF1F7FDF70CFF00EBC00101EB0010FF
:1047800061688900B0FBF1F0B0FBF5F06FF0180143
:10479000484307EB800108EB0110B0FBF5F000F097
:1047A0000F00A9E7001401400010014090F83910F3
:1047B000212901D0022070478168B1F5805F016A2C
:1047C0000BD04A1C0262026809785160C18C491EF4
:1047D0000904090CC1840ED017E009880268C1F3EE
:1047E0000801516001690029016A02D0491C016277
:1047F000ECE7891CFBE70168CA6822F08002CA6006
:104800000068C16841F04001C160002070470000AD
:104810000148FEF7F9BB0000E408002004480068E6
:104820000068C00602D5024801F0CCBD7047000008
:10483000C40500200148FEF7E7BB00002409002062
:10484000044800680068C043800602D40148FEF7AF
:10485000DBBB70476409002010B5D0F81422526801
:104860009047002010BD134610B50A46002100F005
:1048700064F9002010BD134610B50A46002100F06F
:10488000DBF9002010BD10B50446802100F0C4F90A
:104890002046BDE81040002100F0BEB910B505214A
:1048A0000023C0F8F4111A46194600F046F900201A
:1048B00010BD10B502238261C0F8F431C261134605
:1048C0000A46002100F0B8F9002010BD10B50421FF
:1048D0000023C0F8F4111A46194600F0ADF9002083
:1048E00010BDF8B5044648880D46010A08294BD288
:1048F000DFE801F04A0409174A4A4048D4F8101288
:10490000207C0A6832E0207C02260028D4F81402B9
:1049100005D0C16A684688470146467041E0816A11
:10492000F8E7C0B206282FD2DFE800F003080D1226
:10493000171CD4F81012207C4A6817E0D4F8101223
:10494000207C8A6812E0D4F81012207CCA680DE03E
:10495000D4F81012207C0A6908E0D4F81012207CE8
:104960004A6903E0D4F81012207C8A6969469047AE
:10497000014616E0207C38B9D4F81402416B684631
:104980008847F5E7207C20B129462046FFF77BFFCA
:10499000F8BDD4F81402016B684688470146072029
:1049A0004870BDF800000028F2D0EA88002AEFD055
:1049B000824200D90246ADF800202046FFF779FF79
:1049C000F8BD10B5D0F82002FDF775F9002010BD34
:1049D0002DE9F0411746044641B1D4F8140242696A
:1049E0008AB394F8FC01032842D043E0D4F8F411D0
:1049F000002504F11400022933D1D0E902639E425C
:104A000007D9F31A83609AB239462046FFF733FF7D
:104A100012E04068B0FBF3F103FB1101A1B9984229
:104A200012D3D4F8F81188420ED200221146204643
:104A3000FFF721FFC4F8F85100231A461946204613
:104A400000F07BF80DE012E0D4F81402C16829B13F
:104A500094F8FC01032801D1204688472046FFF73F
:104A60001DFF94F80002012804D184F8005201E0EF
:104A7000204690470020BDE8F08170B515460446F9
:104A800041B1D4F8140282693AB394F8FC010328C6
:104A900024D025E0D4F8F41104F5827003291FD145
:104AA000D0E902218A420BD9531A83600846834217
:104AB00000D303469AB229462046FFF7D4FE0FE002
:104AC000D4F81402016929B194F8FC01032801D13A
:104AD000204688472046FFF7F9FE01E02046904730
:104AE000002070BD0020704710B5012180F8FC1136
:104AF000D0F81422017952689047002010BD0A06B0
:104B000001F07F01D0F82002C1EBC10100EB810070
:104B100002D590F83A00704790F8DE017047002007
:104B200070470020704710B51C461346D0F820028D
:104B30002246FDF7E8F8002010BD10B5D0F820029D
:104B4000FDF70CF9002010BD70B50022044640238B
:104B50001146FFF7E8FF40252B4600228021204622
:104B6000C4F81051FFF7DFFF0120256284F8FC0133
:104B7000D4F8180228B1D4F81402217942682046EA
:104B80009047002070BD90F8FD1180F8FC110020C6
:104B9000704710B590F8FC11032904D1D0F8141215
:104BA000C96901B18847002010BD01740020704719
:104BB00010B5D0F82002FDF7F5FB002010BD70B550
:104BC000044600F50270054600F03DF80120C4F8E7
:104BD000F401B4F80E02C4F8F80194F8080210F0D9
:104BE0001F010AD001290DD0022910D000F0800148
:104BF000204600F011F8002070BD2946204600F044
:104C00007BF8F8E72946204600F05DF9F3E72946EE
:104C1000204600F0EAF8EEE710B5D0F82002FDF7E4
:104C2000CCF8002010BD90F8FC1180F8FD11042193
:104C300080F8FC110020704710B5D0F82002FDF775
:104C4000ECF8002010BD0A7802704A7842708A7829
:104C5000CB7802EB032242800A794B7902EB0322E4
:104C600082808A79C97902EB0121C180704710B531
:104C7000D0F8142202241AB11268904700B9002417
:104C8000204610BD70B50E461A4D8978044629702D
:104C9000012928D894F8FC01022802D0032822D147
:104CA00005E099B10320616084F8FC0109E091B14D
:104CB000606888420AD0C1B22046FFF7CDFD29784E
:104CC00061602046FFF7D3FF02280CD02046BDE8E4
:104CD0007040FFF7FBBD022084F8FC0120466160B4
:104CE000FFF7BAFDF2E731462046BDE87040FFF716
:104CF000CABD00008C0000202DE9F04100264B7851
:104D0000012532460A2B43D2DFE803F03C584251DA
:104D1000420805422A27FFF7E4FD63E0044688883D
:104D2000C8B9C888B8B9887800F07F0794F8FC0142
:104D3000032810D084F8FE7139462046FFF738FF6B
:104D40002046FFF7C3FD1FB1022084F8FC0149E0B3
:104D500084F8FC5146E020461AE0FFF793FF41E05B
:104D6000CB88012B14D190F8FC31022B02D0032BFD
:104D70000ED104E08260012200F1080114E001225A
:104D8000011D11E090F8FC21022A04D0032A02D070
:104D9000FFF779FD26E0C560D0F8041209B10321C0
:104DA000C160022200F10C01FFF783FD1AE0044606
:104DB0004888012816D1C4F804520BE0044690F844
:104DC000FC01022801D00328C5D14888012809D157
:104DD000C4F80422D4F81402826820469047204682
:104DE000FFF774FD3046BDE8F08170B50D4604460E
:104DF000287800260979C0F34110012806D0687888
:104E0000A0B301281FD003283FD107E0D4F8140233
:104E10002946826820469047002070BD94F8FC0126
:104E2000022817D003282CD1688828B921B18029FD
:104E300002D02046FFF7F0FED4F81402294682681B
:104E40002046904713E094F8FC01022802D0032882
:104E500017D103E0C9B180291BD116E06888A0B939
:104E6000480604D02046FFF7ACFDE5E703E0204606
:104E7000FFF72CFD09E094F8FC01022807D0032875
:104E80000BD029462046FFF7FEFC304670BD480691
:104E9000FBD02046FFF7C0FEF7E7080601F07F00D1
:104EA00004EB001501D5143501E005F582752046A7
:104EB000FFF725FE00B10120286002222946204686
:104EC000FFF7F7FCE1E770B5054690F8FC010C46EA
:104ED00003280DD1207901280AD8D5F81402826858
:104EE00028469047E08830B92846FFF7EFFC02E0FB
:104EF0002846FFF7C8FC002070BD000030B54C7894
:104F00001D4B01220D78AA40012CD0F81C4818D066
:104F100044EA0242C0F81C280A7800EB4210D0F89C
:104F2000002B12040BD4D0F8002B0C89C4F30A0414
:104F30002243C97843EA81410A43C0F8002B00208C
:104F400030BD92B21443C0F81C480C7800EB4410FA
:104F5000D0F800291204F2D4D0F800290D89C5F345
:104F60000A052A43C978890441EA84510A431A434D
:104F7000C0F80029E3E7000000800010D0F8001915
:104F80006FF30A01C0F80019D0F80818C1F3410105
:104F9000022905D1D0F8001941F00301C0F8001929
:104FA000D0F8041841F48071C0F80418002070474C
:104FB00030B54D784D4C0B7800EB4313012D28D0C4
:104FC000D3F8105B6FF31205C3F8105B0B7800EB9E
:104FD0004313D3F8105B2540C3F8105B4B690BB14A
:104FE0008B684B610B7800EB4313D3F8104B44F400
:104FF0000024C3F8104B0B7800EB4313D3F8104B8D
:105000008D68C5F312052C43C3F8104B012A5CD000
:1050100061E04D69002DD3F810593BD06FF31205B4
:10502000C3F810590B7800EB4313D3F810592540FF
:10503000C3F810594C698B689C4200D94B610B78BE
:1050400000EB4313D3F8104944F40024C3F810498B
:105050000B7800EB4313D3F810494D69C5F31205E3
:1050600054EA0504C3F81049012A27D04A693AB125
:10507000D0F834280C780123A3401A43C0F8342810
:10508000097800EB4110D0F8001941F00441C0F854
:10509000001929E02540C3F810590B7800EB4313A1
:1050A000D3F8104944F40024C3F810490B7800EBFE
:1050B0004313D3F810496FF31204D3E70B7800EBD6
:1050C00043130A69C3F81429DAE70B7800EB43139A
:1050D000CA68C3F8142B097800EB4110D0F8001B04
:1050E00041F00441C0F8001B002030BDFFFF07E085
:1050F0000023C0F8103BD0F8103B43F40023C0F865
:10510000103BD0F8103B43F01803C0F8103BD0F828
:10511000103B43F0C043C0F8103B012905D1C0F853
:10512000142B4FF08021C0F8001B002070474B78F3
:105130000A7800EB4212012B0BD0D2F8003B23F48B
:105140000013C2F8003BCA78032A17D0022A15D0F0
:105150001DE0D2F8003923F40013C2F80039CA78F0
:10516000032A01D0022A12D1097800EB4110D0F8AD
:10517000001941F08051C0F8001908E0097800EBEF
:105180004110D0F8001B41F08051C0F8001B0020F6
:1051900070474B780A7800EB4212012B14D0D2F8FA
:1051A000003B002B05DBD2F8003B23F08043C2F824
:1051B000003B097800EB4110D0F8001B41F40011CE
:1051C000C0F8001B00207047D2F80039002B05DB27
:1051D000D2F8003923F08043C2F80039097800EB97
:1051E0004110D0F8001941F40011C0F80019E9E7A6
:1051F00078B54E786FF06045834C0B7800EB431325
:10520000012E2FD0D3F8106B6FF31206C3F8106B7A
:105210000B7800EB4313D3F8106B2640C3F8106BE8
:105220004B69002B7DD08C6823445B1EB3FBF4F3E9
:105230009BB20C7800EB4414D4F8106B05EAC3451C
:105240002E43C4F8106B0C7800EB4414D4F8105BB8
:105250008E685E43C6F312031D43C4F8105B012A37
:1052600073D0B2E04E6966B3D3F810696FF31206DB
:10527000C3F810690B7800EB4313D3F8106926408C
:10528000C3F810694C698B681C44641EB4FBF3F3CB
:1052900005EAC3440B7800EB4313D3F810592C43B1
:1052A000C3F810490B7800EB4313D3F810494D694C
:1052B000C5F312052C43C3F81049CB78012B16D047
:1052C00027E0D3F810592540C3F810590B7800EBAC
:1052D0004313D3F8104944F40024C3F810490B7861
:1052E00000EB4313D3F810496FF312040FE00B786F
:1052F00000EB4313D3F8104924F0C044C3F810491D
:105300000B7800EB4313D3F8104944F00054C3F872
:105310001049012A12D0CB78012B17D04B692BB33F
:1053200000E037E0D0F834380D780124AC40234356
:10533000C0F83438CB78012B08D017E00C7800EB9C
:1053400044140B69C4F81439F4E738E0D0F808388D
:10535000DB050B7800EB4313D3F8004902D444F08B
:10536000005401E044F08054C3F800490B7800EB8E
:105370004313D3F8004944F00444C3F80049CB7800
:10538000012B3ED100928A8A93B20A78C96800F054
:10539000BBF836E00B7800EB4313D3F8104B8D6865
:1053A000C5F312052C43C3F8104B0B7800EB4313E5
:1053B000D3F8104B44F40024C3F8104B4FE70B789C
:1053C00000EB4313CA68C3F8142BCA78012A0FD123
:1053D000D0F80828D2050A7800EB4212D2F8003B38
:1053E00002D443F0005301E043F08053C2F8003B85
:1053F000097800EB4110D0F8001B41F00441C0F8DF
:10540000001B002078BD0000FFFF07E000222023E2
:1054100043EA811101610549521C8A4201D90320E6
:10542000704703699B06F7D400207047400D0300C6
:105430000021D0F8082812F0060F15D0D0F808285F
:10544000C2F34102012A0CD0D0F80828C2F341026D
:10545000032A06D0D0F80808C0F34100022802D081
:1054600002E0032100E0022108467047406900F095
:1054700001007047D0F81818D0F81C08084080B216
:105480007047D0F81818D0F81C080840000C704776
:10549000D0F81038D0F83428CA4002F0010243EAAC
:1054A000C21200EB4110D0F808091040704700EB21
:1054B0004111D1F8081BD0F8140808407047416921
:1054C00080690840704710B503460020D21C92083E
:1054D00003F5805303E01C6841F8044B401C9042E4
:1054E000F9D3084610BDD0F8002822F4FE62C0F8B7
:1054F0000028D0F800284FF4FE6303EA01110A43A4
:10550000C0F800280020704730B50024039D6DB915
:10551000DB1C9B0800EB023000F5805004E000BF6C
:1055200051F8042B0260641C9C42F9D3002030BD6A
:10553000FEE7000070B5164E0446002201213046F9
:10554000FCF7ADFAFDF771FF5FF0000504F0800095
:1055500080281BD0002202213046FCF7A0FAFDF77C
:1055600064FF6006040E012211463046FCF797FAEC
:10557000FDF75BFF002201213046FCF790FAFDF7B2
:1055800054FF6D1CEDB2082DE0D370BD0122E2E79F
:105590000004024010B50446FDF74CFF7820FFF7E9
:1055A000C9FFFDF78BFF0020FFF7C4FFFDF786FF63
:1055B0002046FFF7BFFFFDF781FFBDE81040FDF774
:1055C0005BBF10B50446FDF735FF7820FFF7B2FF4B
:1055D000FDF774FF4020FFF7ADFFFDF76FFF20469A
:1055E000FFF7A8FFFDF76AFFBDE81040FDF744BFD5
:1055F00018480188C1F30A0217490A804278D30883
:10560000827843EA4213C3F30A034B80C3789209BA
:1056100042EA8303027943EA8223C3F30A038B80BD
:105620005308427943EAC213C3F30A03CB809309B8
:105630000B72C2F301124A72C2884A8102898A81BE
:105640004289CA81027B0A74427B4A74C0894882BB
:10565000704700001A020020CC0100200FB4084B54
:1056600010B504A902AA039800F0DEF8044602A9C6
:10567000002000F070FC204610BC5DF814FB000018
:10568000575F000802E008C8121F08C1002AFAD1BB
:1056900070477047002001E001C1121F002AFBD1B2
:1056A000704700002DE9FF5F82B00021DDE9043082
:1056B000020DDDF840B0034318D044F61050A2F2BA
:1056C000FF3242431514119801281FD0A5EB0B009F
:1056D000401C5FEA000A4FF000064E4FDFF8389199
:1056E000B046504615D5CAF1000413E011980124C4
:1056F0004AA3012801D16FEA0B010298119AC0E96F
:105700000031C0E9024206B0BDE8F09FCBF10000D5
:10571000DFE704460021404A491842EB0450CDE936
:10572000001012E0E00707D032463B4640464946AB
:10573000FAF723FE8046894632463B461046194614
:10574000FAF71BFE06460F466410002CEAD1DDE98D
:105750000401DDE90023BAF1000F06DAFAF70DFEC5
:1057600042464B46FAF709FE05E0FAF778FE424654
:105770004B46FAF774FE04460E460022284BFBF710
:1057800061F803D84FF0FF30014607E00022254BB7
:1057900020463146FAF74AFDFBF73BF8102409E0B2
:1057A000002C0ADB0A220023FAF73DFF039B30326C
:1057B0001A55641E50EA0102F2D1641C039AC4F126
:1057C00011031444119A012A03D0012208430DD178
:1057D0000AE0084304D000204FF0110B119072E74B
:1057E000A3EB0B056D1E0DE05B4504DD4FF00002E1
:1057F00005F1010504E003DA4FF00002A5F101050F
:10580000002AECD002981199C0E90231C0E90045A4
:1058100079E70000000014400000F03F3000000075
:105820000000F0430000E03F2DE9FF4F95B09B469C
:105830008946064600250FE2252877D10024274611
:10584000F84A0121059400E0044316F8013F203B8B
:1058500001FA03F01042F7D130782A2811D06FF006
:105860002F033078A0F13002092A16D8059A44F0A7
:10587000020402EB820203EB42021044761C059004
:10588000EFE759F8042B0592002A03DA504244F45A
:105890000054059044F00204761C30782E2816D16E
:1058A00016F8010F44F004042A280DD06FF02F02DF
:1058B0003078A0F13003092B09D807EB870302EBFE
:1058C0004303C718761CF3E759F8047B761C30783D
:1058D0006C280FD006DC4C2817D068280DD06A2819
:1058E00014D104E0742810D07A280FD10DE044F4CC
:1058F00000140AE044F4801401E044F44014727887
:10590000824202D104F58014761C761C3078662819
:105910000BD013DC582877D009DC002875D0452837
:10592000F6D04628F4D047281AD19DE118E0632824
:1059300035D0642879D0652812D195E1702873D0CC
:1059400008DC6728F1D069286FD06E280DD06F2849
:1059500006D1B5E073282CD0752875D0782874D07E
:105960005A46179990476D1C75E1C4F302500228FE
:1059700009D003280DD0D9F8001004280DD00D60EF
:1059800009F1040967E1D9F80010EA17C1E90052EA
:10599000F6E7D9F800100D80F2E70D70F0E719F87E
:1059A000041B8DF8001000208DF80100EA4601204C
:1059B00003E059F804AB4FF0FF3061074FF00001EE
:1059C00002D40DE008F101018846B9420FDA8045A2
:1059D000F8DB1AF808100029F4D108E008F10101F9
:1059E00088468142FADB1AF808100029F6D105989A
:1059F0005B46A0EB080721463846179A00F094FA58
:105A0000284400EB080507E04DE029E10DE01AF815
:105A1000010B5A4617999047B8F10108F7D25B4637
:105A200021463846179A13E142E00A220092C4F355
:105A300002524FF0000A022A08D059F804CB032A78
:105A40004FEAEC710AD00DE029E02AE009F10701E4
:105A500021F00702F2E802C1914609E00FFA8CFC3E
:105A60004FEAEC71042A03D14FFA8CFC4FEAEC7137
:105A7000002907DA0A460021DCF1000C61EB020183
:105A80002D2202E0220504D52B228DF804200122CC
:105A900003E0E20701D02022F7E7904659E00A210F
:105AA00002E010220DE010214FF0000A00910BE0FF
:105AB00010224FF0000A44F004040827009203E08B
:105AC00008224FF0000A0092C4F30252022A05D0C5
:105AD00059F804CB0021032A08D009E009F1070195
